{
  "_format": "hh-sol-artifact-1",
  "contractName": "NFT",
  "sourceName": "contracts/nftmarketplace/NFT.sol",
  "abi": [
    {
      "inputs": [],
      "stateMutability": "nonpayable",
      "type": "constructor"
    },
    {
      "anonymous": false,
      "inputs": [
        {
          "indexed": true,
          "internalType": "address",
          "name": "account",
          "type": "address"
        },
        {
          "indexed": true,
          "internalType": "address",
          "name": "operator",
          "type": "address"
        },
        {
          "indexed": false,
          "internalType": "bool",
          "name": "approved",
          "type": "bool"
        }
      ],
      "name": "ApprovalForAll",
      "type": "event"
    },
    {
      "anonymous": false,
      "inputs": [
        {
          "indexed": true,
          "internalType": "address",
          "name": "previousOwner",
          "type": "address"
        },
        {
          "indexed": true,
          "internalType": "address",
          "name": "newOwner",
          "type": "address"
        }
      ],
      "name": "OwnershipTransferred",
      "type": "event"
    },
    {
      "anonymous": false,
      "inputs": [
        {
          "indexed": true,
          "internalType": "address",
          "name": "operator",
          "type": "address"
        },
        {
          "indexed": true,
          "internalType": "address",
          "name": "from",
          "type": "address"
        },
        {
          "indexed": true,
          "internalType": "address",
          "name": "to",
          "type": "address"
        },
        {
          "indexed": false,
          "internalType": "uint256[]",
          "name": "ids",
          "type": "uint256[]"
        },
        {
          "indexed": false,
          "internalType": "uint256[]",
          "name": "values",
          "type": "uint256[]"
        }
      ],
      "name": "TransferBatch",
      "type": "event"
    },
    {
      "anonymous": false,
      "inputs": [
        {
          "indexed": true,
          "internalType": "address",
          "name": "operator",
          "type": "address"
        },
        {
          "indexed": true,
          "internalType": "address",
          "name": "from",
          "type": "address"
        },
        {
          "indexed": true,
          "internalType": "address",
          "name": "to",
          "type": "address"
        },
        {
          "indexed": false,
          "internalType": "uint256",
          "name": "id",
          "type": "uint256"
        },
        {
          "indexed": false,
          "internalType": "uint256",
          "name": "value",
          "type": "uint256"
        }
      ],
      "name": "TransferSingle",
      "type": "event"
    },
    {
      "anonymous": false,
      "inputs": [
        {
          "indexed": false,
          "internalType": "string",
          "name": "value",
          "type": "string"
        },
        {
          "indexed": true,
          "internalType": "uint256",
          "name": "id",
          "type": "uint256"
        }
      ],
      "name": "URI",
      "type": "event"
    },
    {
      "inputs": [
        {
          "internalType": "address",
          "name": "account",
          "type": "address"
        },
        {
          "internalType": "uint256",
          "name": "id",
          "type": "uint256"
        }
      ],
      "name": "balanceOf",
      "outputs": [
        {
          "internalType": "uint256",
          "name": "",
          "type": "uint256"
        }
      ],
      "stateMutability": "view",
      "type": "function"
    },
    {
      "inputs": [
        {
          "internalType": "address[]",
          "name": "accounts",
          "type": "address[]"
        },
        {
          "internalType": "uint256[]",
          "name": "ids",
          "type": "uint256[]"
        }
      ],
      "name": "balanceOfBatch",
      "outputs": [
        {
          "internalType": "uint256[]",
          "name": "",
          "type": "uint256[]"
        }
      ],
      "stateMutability": "view",
      "type": "function"
    },
    {
      "inputs": [
        {
          "internalType": "address",
          "name": "account",
          "type": "address"
        },
        {
          "internalType": "address",
          "name": "operator",
          "type": "address"
        }
      ],
      "name": "isApprovedForAll",
      "outputs": [
        {
          "internalType": "bool",
          "name": "",
          "type": "bool"
        }
      ],
      "stateMutability": "view",
      "type": "function"
    },
    {
      "inputs": [
        {
          "internalType": "address",
          "name": "owner",
          "type": "address"
        },
        {
          "internalType": "uint256[]",
          "name": "tokenIds",
          "type": "uint256[]"
        },
        {
          "internalType": "string[]",
          "name": "metaHashes",
          "type": "string[]"
        },
        {
          "internalType": "uint256[]",
          "name": "amounts",
          "type": "uint256[]"
        }
      ],
      "name": "mintBatchTokens",
      "outputs": [],
      "stateMutability": "nonpayable",
      "type": "function"
    },
    {
      "inputs": [
        {
          "internalType": "address",
          "name": "owner",
          "type": "address"
        },
        {
          "internalType": "uint256",
          "name": "tokenId",
          "type": "uint256"
        },
        {
          "internalType": "string",
          "name": "metahash",
          "type": "string"
        },
        {
          "internalType": "uint256",
          "name": "amount",
          "type": "uint256"
        }
      ],
      "name": "mintToken",
      "outputs": [],
      "stateMutability": "nonpayable",
      "type": "function"
    },
    {
      "inputs": [],
      "name": "owner",
      "outputs": [
        {
          "internalType": "address",
          "name": "",
          "type": "address"
        }
      ],
      "stateMutability": "view",
      "type": "function"
    },
    {
      "inputs": [],
      "name": "renounceOwnership",
      "outputs": [],
      "stateMutability": "nonpayable",
      "type": "function"
    },
    {
      "inputs": [
        {
          "internalType": "address",
          "name": "from",
          "type": "address"
        },
        {
          "internalType": "address",
          "name": "to",
          "type": "address"
        },
        {
          "internalType": "uint256[]",
          "name": "ids",
          "type": "uint256[]"
        },
        {
          "internalType": "uint256[]",
          "name": "amounts",
          "type": "uint256[]"
        },
        {
          "internalType": "bytes",
          "name": "data",
          "type": "bytes"
        }
      ],
      "name": "safeBatchTransferFrom",
      "outputs": [],
      "stateMutability": "nonpayable",
      "type": "function"
    },
    {
      "inputs": [
        {
          "internalType": "address",
          "name": "from",
          "type": "address"
        },
        {
          "internalType": "address",
          "name": "to",
          "type": "address"
        },
        {
          "internalType": "uint256",
          "name": "id",
          "type": "uint256"
        },
        {
          "internalType": "uint256",
          "name": "amount",
          "type": "uint256"
        },
        {
          "internalType": "bytes",
          "name": "data",
          "type": "bytes"
        }
      ],
      "name": "safeTransferFrom",
      "outputs": [],
      "stateMutability": "nonpayable",
      "type": "function"
    },
    {
      "inputs": [
        {
          "internalType": "address",
          "name": "operator",
          "type": "address"
        },
        {
          "internalType": "bool",
          "name": "approved",
          "type": "bool"
        }
      ],
      "name": "setApprovalForAll",
      "outputs": [],
      "stateMutability": "nonpayable",
      "type": "function"
    },
    {
      "inputs": [
        {
          "internalType": "bytes4",
          "name": "interfaceId",
          "type": "bytes4"
        }
      ],
      "name": "supportsInterface",
      "outputs": [
        {
          "internalType": "bool",
          "name": "",
          "type": "bool"
        }
      ],
      "stateMutability": "view",
      "type": "function"
    },
    {
      "inputs": [
        {
          "internalType": "address",
          "name": "newOwner",
          "type": "address"
        }
      ],
      "name": "transferOwnership",
      "outputs": [],
      "stateMutability": "nonpayable",
      "type": "function"
    },
    {
      "inputs": [
        {
          "internalType": "uint256",
          "name": "tokenId",
          "type": "uint256"
        }
      ],
      "name": "uri",
      "outputs": [
        {
          "internalType": "string",
          "name": "",
          "type": "string"
        }
      ],
      "stateMutability": "view",
      "type": "function"
    }
  ],
  "bytecode": "0x60806040523480156200001157600080fd5b50604051806020016040528060008152506200003381620000f660201b60201c565b5062000054620000486200011260201b60201c565b6200011a60201b60201c565b6040518060400160405280601581526020017f4c6561677565206f6620456d7069726573204e4654000000000000000000000081525060049080519060200190620000a1929190620001e0565b506040518060400160405280600681526020017f4c6f454e4654000000000000000000000000000000000000000000000000000081525060059080519060200190620000ef929190620001e0565b50620002f5565b80600290805190602001906200010e929190620001e0565b5050565b600033905090565b6000600360009054906101000a900473ffffffffffffffffffffffffffffffffffffffff16905081600360006101000a81548173ffffffffffffffffffffffffffffffffffffffff021916908373ffffffffffffffffffffffffffffffffffffffff1602179055508173ffffffffffffffffffffffffffffffffffffffff168173ffffffffffffffffffffffffffffffffffffffff167f8be0079c531659141344cd1fd0a4f28419497f9722a3daafe3b4186f6b6457e060405160405180910390a35050565b828054620001ee9062000290565b90600052602060002090601f0160209004810192826200021257600085556200025e565b82601f106200022d57805160ff19168380011785556200025e565b828001600101855582156200025e579182015b828111156200025d57825182559160200191906001019062000240565b5b5090506200026d919062000271565b5090565b5b808211156200028c57600081600090555060010162000272565b5090565b60006002820490506001821680620002a957607f821691505b60208210811415620002c057620002bf620002c6565b5b50919050565b7f4e487b7100000000000000000000000000000000000000000000000000000000600052602260045260246000fd5b61349880620003056000396000f3fe608060405234801561001057600080fd5b50600436106100ce5760003560e01c80634e1273f41161008c578063a22cb46511610066578063a22cb4651461020f578063e985e9c51461022b578063f242432a1461025b578063f2fde38b14610277576100ce565b80634e1273f4146101b7578063715018a6146101e75780638da5cb5b146101f1576100ce565b8062fdd58e146100d357806301ffc9a7146101035780630e89341c1461013357806320d80e7814610163578063224cb2ea1461017f5780632eb2c2d61461019b575b600080fd5b6100ed60048036038101906100e89190612311565b610293565b6040516100fa9190612b2e565b60405180910390f35b61011d60048036038101906101189190612434565b61035c565b60405161012a9190612971565b60405180910390f35b61014d60048036038101906101489190612486565b61043e565b60405161015a919061298c565b60405180910390f35b61017d60048036038101906101789190612225565b610479565b005b6101996004803603810190610194919061234d565b6105aa565b005b6101b560048036038101906101b091906120d7565b6105f3565b005b6101d160048036038101906101cc91906123c8565b610694565b6040516101de9190612918565b60405180910390f35b6101ef610845565b005b6101f9610859565b604051610206919061283b565b60405180910390f35b610229600480360381019061022491906122d5565b610883565b005b6102456004803603810190610240919061209b565b610899565b6040516102529190612971565b60405180910390f35b61027560048036038101906102709190612196565b61092d565b005b610291600480360381019061028c9190612072565b6109ce565b005b60008073ffffffffffffffffffffffffffffffffffffffff168373ffffffffffffffffffffffffffffffffffffffff161415610304576040517f08c379a00000000000000000000000000000000000000000000000000000000081526004016102fb90612a2e565b60405180910390fd5b60008083815260200190815260200160002060008473ffffffffffffffffffffffffffffffffffffffff1673ffffffffffffffffffffffffffffffffffffffff16815260200190815260200160002054905092915050565b60007fd9b67a26000000000000000000000000000000000000000000000000000000007bffffffffffffffffffffffffffffffffffffffffffffffffffffffff1916827bffffffffffffffffffffffffffffffffffffffffffffffffffffffff1916148061042757507f0e89341c000000000000000000000000000000000000000000000000000000007bffffffffffffffffffffffffffffffffffffffffffffffffffffffff1916827bffffffffffffffffffffffffffffffffffffffffffffffffffffffff1916145b80610437575061043682610a52565b5b9050919050565b6060600660008381526020019081526020016000206040516020016104639190612819565b6040516020818303038152906040529050919050565b6104d58585848480806020026020016040519081016040528093929190818152602001838360200280828437600081840152601f19601f8201169050808301925050505050505060405180602001604052806000815250610abc565b60005b84518110156105a257600084828151811061051c577f4e487b7100000000000000000000000000000000000000000000000000000000600052603260045260246000fd5b602002602001015190508060066000888581518110610564577f4e487b7100000000000000000000000000000000000000000000000000000000600052603260045260246000fd5b60200260200101518152602001908152602001600020908051906020019061058d929190611c70565b50818061059990612e7d565b925050506104d8565b505050505050565b6105c584848360405180602001604052806000815250610d35565b816006600085815260200190815260200160002090805190602001906105ec929190611c70565b5050505050565b6105fb610ee6565b73ffffffffffffffffffffffffffffffffffffffff168573ffffffffffffffffffffffffffffffffffffffff16148061064157506106408561063b610ee6565b610899565b5b610680576040517f08c379a0000000000000000000000000000000000000000000000000000000008152600401610677906129ce565b60405180910390fd5b61068d8585858585610eee565b5050505050565b606081518351146106da576040517f08c379a00000000000000000000000000000000000000000000000000000000081526004016106d190612ace565b60405180910390fd5b6000835167ffffffffffffffff81111561071d577f4e487b7100000000000000000000000000000000000000000000000000000000600052604160045260246000fd5b60405190808252806020026020018201604052801561074b5781602001602082028036833780820191505090505b50905060005b845181101561083a576107e4858281518110610796577f4e487b7100000000000000000000000000000000000000000000000000000000600052603260045260246000fd5b60200260200101518583815181106107d7577f4e487b7100000000000000000000000000000000000000000000000000000000600052603260045260246000fd5b6020026020010151610293565b82828151811061081d577f4e487b7100000000000000000000000000000000000000000000000000000000600052603260045260246000fd5b6020026020010181815250508061083390612e7d565b9050610751565b508091505092915050565b61084d61125c565b61085760006112da565b565b6000600360009054906101000a900473ffffffffffffffffffffffffffffffffffffffff16905090565b61089561088e610ee6565b83836113a0565b5050565b6000600160008473ffffffffffffffffffffffffffffffffffffffff1673ffffffffffffffffffffffffffffffffffffffff16815260200190815260200160002060008373ffffffffffffffffffffffffffffffffffffffff1673ffffffffffffffffffffffffffffffffffffffff16815260200190815260200160002060009054906101000a900460ff16905092915050565b610935610ee6565b73ffffffffffffffffffffffffffffffffffffffff168573ffffffffffffffffffffffffffffffffffffffff16148061097b575061097a85610975610ee6565b610899565b5b6109ba576040517f08c379a00000000000000000000000000000000000000000000000000000000081526004016109b1906129ce565b60405180910390fd5b6109c7858585858561150d565b5050505050565b6109d661125c565b600073ffffffffffffffffffffffffffffffffffffffff168173ffffffffffffffffffffffffffffffffffffffff161415610a46576040517f08c379a0000000000000000000000000000000000000000000000000000000008152600401610a3d90612a0e565b60405180910390fd5b610a4f816112da565b50565b60007f01ffc9a7000000000000000000000000000000000000000000000000000000007bffffffffffffffffffffffffffffffffffffffffffffffffffffffff1916827bffffffffffffffffffffffffffffffffffffffffffffffffffffffff1916149050919050565b600073ffffffffffffffffffffffffffffffffffffffff168473ffffffffffffffffffffffffffffffffffffffff161415610b2c576040517f08c379a0000000000000000000000000000000000000000000000000000000008152600401610b2390612b0e565b60405180910390fd5b8151835114610b70576040517f08c379a0000000000000000000000000000000000000000000000000000000008152600401610b6790612aee565b60405180910390fd5b6000610b7a610ee6565b9050610b8b816000878787876117a9565b60005b8451811015610c9057838181518110610bd0577f4e487b7100000000000000000000000000000000000000000000000000000000600052603260045260246000fd5b6020026020010151600080878481518110610c14577f4e487b7100000000000000000000000000000000000000000000000000000000600052603260045260246000fd5b6020026020010151815260200190815260200160002060008873ffffffffffffffffffffffffffffffffffffffff1673ffffffffffffffffffffffffffffffffffffffff1681526020019081526020016000206000828254610c769190612d0e565b925050819055508080610c8890612e7d565b915050610b8e565b508473ffffffffffffffffffffffffffffffffffffffff16600073ffffffffffffffffffffffffffffffffffffffff168273ffffffffffffffffffffffffffffffffffffffff167f4a39dc06d4c0dbc64b70af90fd698a233a518aa5d07e595d983b8c0526c8f7fb8787604051610d0892919061293a565b60405180910390a4610d1f816000878787876117b1565b610d2e816000878787876117b9565b5050505050565b600073ffffffffffffffffffffffffffffffffffffffff168473ffffffffffffffffffffffffffffffffffffffff161415610da5576040517f08c379a0000000000000000000000000000000000000000000000000000000008152600401610d9c90612b0e565b60405180910390fd5b6000610daf610ee6565b90506000610dbc856119a0565b90506000610dc9856119a0565b9050610dda836000898585896117a9565b8460008088815260200190815260200160002060008973ffffffffffffffffffffffffffffffffffffffff1673ffffffffffffffffffffffffffffffffffffffff1681526020019081526020016000206000828254610e399190612d0e565b925050819055508673ffffffffffffffffffffffffffffffffffffffff16600073ffffffffffffffffffffffffffffffffffffffff168473ffffffffffffffffffffffffffffffffffffffff167fc3d58168c5ae7397731d063d5bbf3d657854427343f4c083240f7aacaa2d0f628989604051610eb7929190612b49565b60405180910390a4610ece836000898585896117b1565b610edd83600089898989611a66565b50505050505050565b600033905090565b8151835114610f32576040517f08c379a0000000000000000000000000000000000000000000000000000000008152600401610f2990612aee565b60405180910390fd5b600073ffffffffffffffffffffffffffffffffffffffff168473ffffffffffffffffffffffffffffffffffffffff161415610fa2576040517f08c379a0000000000000000000000000000000000000000000000000000000008152600401610f9990612a4e565b60405180910390fd5b6000610fac610ee6565b9050610fbc8187878787876117a9565b60005b84518110156111b9576000858281518110611003577f4e487b7100000000000000000000000000000000000000000000000000000000600052603260045260246000fd5b602002602001015190506000858381518110611048577f4e487b7100000000000000000000000000000000000000000000000000000000600052603260045260246000fd5b60200260200101519050600080600084815260200190815260200160002060008b73ffffffffffffffffffffffffffffffffffffffff1673ffffffffffffffffffffffffffffffffffffffff168152602001908152602001600020549050818110156110e9576040517f08c379a00000000000000000000000000000000000000000000000000000000081526004016110e090612a6e565b60405180910390fd5b81810360008085815260200190815260200160002060008c73ffffffffffffffffffffffffffffffffffffffff1673ffffffffffffffffffffffffffffffffffffffff168152602001908152602001600020819055508160008085815260200190815260200160002060008b73ffffffffffffffffffffffffffffffffffffffff1673ffffffffffffffffffffffffffffffffffffffff168152602001908152602001600020600082825461119e9190612d0e565b92505081905550505050806111b290612e7d565b9050610fbf565b508473ffffffffffffffffffffffffffffffffffffffff168673ffffffffffffffffffffffffffffffffffffffff168273ffffffffffffffffffffffffffffffffffffffff167f4a39dc06d4c0dbc64b70af90fd698a233a518aa5d07e595d983b8c0526c8f7fb878760405161123092919061293a565b60405180910390a46112468187878787876117b1565b6112548187878787876117b9565b505050505050565b611264610ee6565b73ffffffffffffffffffffffffffffffffffffffff16611282610859565b73ffffffffffffffffffffffffffffffffffffffff16146112d8576040517f08c379a00000000000000000000000000000000000000000000000000000000081526004016112cf90612a8e565b60405180910390fd5b565b6000600360009054906101000a900473ffffffffffffffffffffffffffffffffffffffff16905081600360006101000a81548173ffffffffffffffffffffffffffffffffffffffff021916908373ffffffffffffffffffffffffffffffffffffffff1602179055508173ffffffffffffffffffffffffffffffffffffffff168173ffffffffffffffffffffffffffffffffffffffff167f8be0079c531659141344cd1fd0a4f28419497f9722a3daafe3b4186f6b6457e060405160405180910390a35050565b8173ffffffffffffffffffffffffffffffffffffffff168373ffffffffffffffffffffffffffffffffffffffff16141561140f576040517f08c379a000000000000000000000000000000000000000000000000000000000815260040161140690612aae565b60405180910390fd5b80600160008573ffffffffffffffffffffffffffffffffffffffff1673ffffffffffffffffffffffffffffffffffffffff16815260200190815260200160002060008473ffffffffffffffffffffffffffffffffffffffff1673ffffffffffffffffffffffffffffffffffffffff16815260200190815260200160002060006101000a81548160ff0219169083151502179055508173ffffffffffffffffffffffffffffffffffffffff168373ffffffffffffffffffffffffffffffffffffffff167f17307eab39ab6107e8899845ad3d59bd9653f200f220920489ca2b5937696c31836040516115009190612971565b60405180910390a3505050565b600073ffffffffffffffffffffffffffffffffffffffff168473ffffffffffffffffffffffffffffffffffffffff16141561157d576040517f08c379a000000000000000000000000000000000000000000000000000000000815260040161157490612a4e565b60405180910390fd5b6000611587610ee6565b90506000611594856119a0565b905060006115a1856119a0565b90506115b18389898585896117a9565b600080600088815260200190815260200160002060008a73ffffffffffffffffffffffffffffffffffffffff1673ffffffffffffffffffffffffffffffffffffffff16815260200190815260200160002054905085811015611648576040517f08c379a000000000000000000000000000000000000000000000000000000000815260040161163f90612a6e565b60405180910390fd5b85810360008089815260200190815260200160002060008b73ffffffffffffffffffffffffffffffffffffffff1673ffffffffffffffffffffffffffffffffffffffff168152602001908152602001600020819055508560008089815260200190815260200160002060008a73ffffffffffffffffffffffffffffffffffffffff1673ffffffffffffffffffffffffffffffffffffffff16815260200190815260200160002060008282546116fd9190612d0e565b925050819055508773ffffffffffffffffffffffffffffffffffffffff168973ffffffffffffffffffffffffffffffffffffffff168573ffffffffffffffffffffffffffffffffffffffff167fc3d58168c5ae7397731d063d5bbf3d657854427343f4c083240f7aacaa2d0f628a8a60405161177a929190612b49565b60405180910390a4611790848a8a86868a6117b1565b61179e848a8a8a8a8a611a66565b505050505050505050565b505050505050565b505050505050565b6117d88473ffffffffffffffffffffffffffffffffffffffff16611c4d565b15611998578373ffffffffffffffffffffffffffffffffffffffff1663bc197c8187878686866040518663ffffffff1660e01b815260040161181e959493929190612856565b602060405180830381600087803b15801561183857600080fd5b505af192505050801561186957506040513d601f19601f82011682018060405250810190611866919061245d565b60015b61190f57611875612f53565b806308c379a014156118d2575061188a613370565b8061189557506118d4565b806040517f08c379a00000000000000000000000000000000000000000000000000000000081526004016118c9919061298c565b60405180910390fd5b505b6040517f08c379a0000000000000000000000000000000000000000000000000000000008152600401611906906129ae565b60405180910390fd5b63bc197c8160e01b7bffffffffffffffffffffffffffffffffffffffffffffffffffffffff1916817bffffffffffffffffffffffffffffffffffffffffffffffffffffffff191614611996576040517f08c379a000000000000000000000000000000000000000000000000000000000815260040161198d906129ee565b60405180910390fd5b505b505050505050565b60606000600167ffffffffffffffff8111156119e5577f4e487b7100000000000000000000000000000000000000000000000000000000600052604160045260246000fd5b604051908082528060200260200182016040528015611a135781602001602082028036833780820191505090505b5090508281600081518110611a51577f4e487b7100000000000000000000000000000000000000000000000000000000600052603260045260246000fd5b60200260200101818152505080915050919050565b611a858473ffffffffffffffffffffffffffffffffffffffff16611c4d565b15611c45578373ffffffffffffffffffffffffffffffffffffffff1663f23a6e6187878686866040518663ffffffff1660e01b8152600401611acb9594939291906128be565b602060405180830381600087803b158015611ae557600080fd5b505af1925050508015611b1657506040513d601f19601f82011682018060405250810190611b13919061245d565b60015b611bbc57611b22612f53565b806308c379a01415611b7f5750611b37613370565b80611b425750611b81565b806040517f08c379a0000000000000000000000000000000000000000000000000000000008152600401611b76919061298c565b60405180910390fd5b505b6040517f08c379a0000000000000000000000000000000000000000000000000000000008152600401611bb3906129ae565b60405180910390fd5b63f23a6e6160e01b7bffffffffffffffffffffffffffffffffffffffffffffffffffffffff1916817bffffffffffffffffffffffffffffffffffffffffffffffffffffffff191614611c43576040517f08c379a0000000000000000000000000000000000000000000000000000000008152600401611c3a906129ee565b60405180910390fd5b505b505050505050565b6000808273ffffffffffffffffffffffffffffffffffffffff163b119050919050565b828054611c7c90612e1a565b90600052602060002090601f016020900481019282611c9e5760008555611ce5565b82601f10611cb757805160ff1916838001178555611ce5565b82800160010185558215611ce5579182015b82811115611ce4578251825591602001919060010190611cc9565b5b509050611cf29190611cf6565b5090565b5b80821115611d0f576000816000905550600101611cf7565b5090565b6000611d26611d2184612b97565b612b72565b90508083825260208201905082856020860282011115611d4557600080fd5b60005b85811015611d755781611d5b8882611eed565b845260208401935060208301925050600181019050611d48565b5050509392505050565b6000611d92611d8d84612bc3565b612b72565b90508083825260208201905082856020860282011115611db157600080fd5b60005b85811015611dfb57813567ffffffffffffffff811115611dd357600080fd5b808601611de08982612033565b85526020850194506020840193505050600181019050611db4565b5050509392505050565b6000611e18611e1384612bef565b612b72565b90508083825260208201905082856020860282011115611e3757600080fd5b60005b85811015611e675781611e4d888261205d565b845260208401935060208301925050600181019050611e3a565b5050509392505050565b6000611e84611e7f84612c1b565b612b72565b905082815260208101848484011115611e9c57600080fd5b611ea7848285612dd8565b509392505050565b6000611ec2611ebd84612c4c565b612b72565b905082815260208101848484011115611eda57600080fd5b611ee5848285612dd8565b509392505050565b600081359050611efc81613406565b92915050565b600082601f830112611f1357600080fd5b8135611f23848260208601611d13565b91505092915050565b600082601f830112611f3d57600080fd5b8135611f4d848260208601611d7f565b91505092915050565b60008083601f840112611f6857600080fd5b8235905067ffffffffffffffff811115611f8157600080fd5b602083019150836020820283011115611f9957600080fd5b9250929050565b600082601f830112611fb157600080fd5b8135611fc1848260208601611e05565b91505092915050565b600081359050611fd98161341d565b92915050565b600081359050611fee81613434565b92915050565b60008151905061200381613434565b92915050565b600082601f83011261201a57600080fd5b813561202a848260208601611e71565b91505092915050565b600082601f83011261204457600080fd5b8135612054848260208601611eaf565b91505092915050565b60008135905061206c8161344b565b92915050565b60006020828403121561208457600080fd5b600061209284828501611eed565b91505092915050565b600080604083850312156120ae57600080fd5b60006120bc85828601611eed565b92505060206120cd85828601611eed565b9150509250929050565b600080600080600060a086880312156120ef57600080fd5b60006120fd88828901611eed565b955050602061210e88828901611eed565b945050604086013567ffffffffffffffff81111561212b57600080fd5b61213788828901611fa0565b935050606086013567ffffffffffffffff81111561215457600080fd5b61216088828901611fa0565b925050608086013567ffffffffffffffff81111561217d57600080fd5b61218988828901612009565b9150509295509295909350565b600080600080600060a086880312156121ae57600080fd5b60006121bc88828901611eed565b95505060206121cd88828901611eed565b94505060406121de8882890161205d565b93505060606121ef8882890161205d565b925050608086013567ffffffffffffffff81111561220c57600080fd5b61221888828901612009565b9150509295509295909350565b60008060008060006080868803121561223d57600080fd5b600061224b88828901611eed565b955050602086013567ffffffffffffffff81111561226857600080fd5b61227488828901611fa0565b945050604086013567ffffffffffffffff81111561229157600080fd5b61229d88828901611f2c565b935050606086013567ffffffffffffffff8111156122ba57600080fd5b6122c688828901611f56565b92509250509295509295909350565b600080604083850312156122e857600080fd5b60006122f685828601611eed565b925050602061230785828601611fca565b9150509250929050565b6000806040838503121561232457600080fd5b600061233285828601611eed565b92505060206123438582860161205d565b9150509250929050565b6000806000806080858703121561236357600080fd5b600061237187828801611eed565b94505060206123828782880161205d565b935050604085013567ffffffffffffffff81111561239f57600080fd5b6123ab87828801612033565b92505060606123bc8782880161205d565b91505092959194509250565b600080604083850312156123db57600080fd5b600083013567ffffffffffffffff8111156123f557600080fd5b61240185828601611f02565b925050602083013567ffffffffffffffff81111561241e57600080fd5b61242a85828601611fa0565b9150509250929050565b60006020828403121561244657600080fd5b600061245484828501611fdf565b91505092915050565b60006020828403121561246f57600080fd5b600061247d84828501611ff4565b91505092915050565b60006020828403121561249857600080fd5b60006124a68482850161205d565b91505092915050565b60006124bb83836127fb565b60208301905092915050565b6124d081612d64565b82525050565b60006124e182612ca2565b6124eb8185612cd0565b93506124f683612c7d565b8060005b8381101561252757815161250e88826124af565b975061251983612cc3565b9250506001810190506124fa565b5085935050505092915050565b61253d81612d76565b82525050565b600061254e82612cad565b6125588185612ce1565b9350612568818560208601612de7565b61257181612f75565b840191505092915050565b600061258782612cb8565b6125918185612cf2565b93506125a1818560208601612de7565b6125aa81612f75565b840191505092915050565b600081546125c281612e1a565b6125cc8186612d03565b945060018216600081146125e757600181146125f85761262b565b60ff1983168652818601935061262b565b61260185612c8d565b60005b8381101561262357815481890152600182019150602081019050612604565b838801955050505b50505092915050565b6000612641603483612cf2565b915061264c82612f93565b604082019050919050565b6000612664602f83612cf2565b915061266f82612fe2565b604082019050919050565b6000612687602883612cf2565b915061269282613031565b604082019050919050565b60006126aa602683612cf2565b91506126b582613080565b604082019050919050565b60006126cd602a83612cf2565b91506126d8826130cf565b604082019050919050565b60006126f0602583612cf2565b91506126fb8261311e565b604082019050919050565b6000612713602a83612cf2565b915061271e8261316d565b604082019050919050565b6000612736602083612cf2565b9150612741826131bc565b602082019050919050565b6000612759602283612d03565b9150612764826131e5565b602282019050919050565b600061277c602983612cf2565b915061278782613234565b604082019050919050565b600061279f602983612cf2565b91506127aa82613283565b604082019050919050565b60006127c2602883612cf2565b91506127cd826132d2565b604082019050919050565b60006127e5602183612cf2565b91506127f082613321565b604082019050919050565b61280481612dce565b82525050565b61281381612dce565b82525050565b60006128248261274c565b915061283082846125b5565b915081905092915050565b600060208201905061285060008301846124c7565b92915050565b600060a08201905061286b60008301886124c7565b61287860208301876124c7565b818103604083015261288a81866124d6565b9050818103606083015261289e81856124d6565b905081810360808301526128b28184612543565b90509695505050505050565b600060a0820190506128d360008301886124c7565b6128e060208301876124c7565b6128ed604083018661280a565b6128fa606083018561280a565b818103608083015261290c8184612543565b90509695505050505050565b6000602082019050818103600083015261293281846124d6565b905092915050565b6000604082019050818103600083015261295481856124d6565b9050818103602083015261296881846124d6565b90509392505050565b60006020820190506129866000830184612534565b92915050565b600060208201905081810360008301526129a6818461257c565b905092915050565b600060208201905081810360008301526129c781612634565b9050919050565b600060208201905081810360008301526129e781612657565b9050919050565b60006020820190508181036000830152612a078161267a565b9050919050565b60006020820190508181036000830152612a278161269d565b9050919050565b60006020820190508181036000830152612a47816126c0565b9050919050565b60006020820190508181036000830152612a67816126e3565b9050919050565b60006020820190508181036000830152612a8781612706565b9050919050565b60006020820190508181036000830152612aa781612729565b9050919050565b60006020820190508181036000830152612ac78161276f565b9050919050565b60006020820190508181036000830152612ae781612792565b9050919050565b60006020820190508181036000830152612b07816127b5565b9050919050565b60006020820190508181036000830152612b27816127d8565b9050919050565b6000602082019050612b43600083018461280a565b92915050565b6000604082019050612b5e600083018561280a565b612b6b602083018461280a565b9392505050565b6000612b7c612b8d565b9050612b888282612e4c565b919050565b6000604051905090565b600067ffffffffffffffff821115612bb257612bb1612f24565b5b602082029050602081019050919050565b600067ffffffffffffffff821115612bde57612bdd612f24565b5b602082029050602081019050919050565b600067ffffffffffffffff821115612c0a57612c09612f24565b5b602082029050602081019050919050565b600067ffffffffffffffff821115612c3657612c35612f24565b5b612c3f82612f75565b9050602081019050919050565b600067ffffffffffffffff821115612c6757612c66612f24565b5b612c7082612f75565b9050602081019050919050565b6000819050602082019050919050565b60008190508160005260206000209050919050565b600081519050919050565b600081519050919050565b600081519050919050565b6000602082019050919050565b600082825260208201905092915050565b600082825260208201905092915050565b600082825260208201905092915050565b600081905092915050565b6000612d1982612dce565b9150612d2483612dce565b9250827fffffffffffffffffffffffffffffffffffffffffffffffffffffffffffffffff03821115612d5957612d58612ec6565b5b828201905092915050565b6000612d6f82612dae565b9050919050565b60008115159050919050565b60007fffffffff0000000000000000000000000000000000000000000000000000000082169050919050565b600073ffffffffffffffffffffffffffffffffffffffff82169050919050565b6000819050919050565b82818337600083830152505050565b60005b83811015612e05578082015181840152602081019050612dea565b83811115612e14576000848401525b50505050565b60006002820490506001821680612e3257607f821691505b60208210811415612e4657612e45612ef5565b5b50919050565b612e5582612f75565b810181811067ffffffffffffffff82111715612e7457612e73612f24565b5b80604052505050565b6000612e8882612dce565b91507fffffffffffffffffffffffffffffffffffffffffffffffffffffffffffffffff821415612ebb57612eba612ec6565b5b600182019050919050565b7f4e487b7100000000000000000000000000000000000000000000000000000000600052601160045260246000fd5b7f4e487b7100000000000000000000000000000000000000000000000000000000600052602260045260246000fd5b7f4e487b7100000000000000000000000000000000000000000000000000000000600052604160045260246000fd5b600060033d1115612f725760046000803e612f6f600051612f86565b90505b90565b6000601f19601f8301169050919050565b60008160e01c9050919050565b7f455243313135353a207472616e7366657220746f206e6f6e204552433131353560008201527f526563656976657220696d706c656d656e746572000000000000000000000000602082015250565b7f455243313135353a2063616c6c6572206973206e6f7420746f6b656e206f776e60008201527f6572206e6f7220617070726f7665640000000000000000000000000000000000602082015250565b7f455243313135353a204552433131353552656365697665722072656a6563746560008201527f6420746f6b656e73000000000000000000000000000000000000000000000000602082015250565b7f4f776e61626c653a206e6577206f776e657220697320746865207a65726f206160008201527f6464726573730000000000000000000000000000000000000000000000000000602082015250565b7f455243313135353a2061646472657373207a65726f206973206e6f742061207660008201527f616c6964206f776e657200000000000000000000000000000000000000000000602082015250565b7f455243313135353a207472616e7366657220746f20746865207a65726f20616460008201527f6472657373000000000000000000000000000000000000000000000000000000602082015250565b7f455243313135353a20696e73756666696369656e742062616c616e636520666f60008201527f72207472616e7366657200000000000000000000000000000000000000000000602082015250565b7f4f776e61626c653a2063616c6c6572206973206e6f7420746865206f776e6572600082015250565b7f68747470733a2f2f676174657761792e70696e6174612e636c6f75642f69706660008201527f732f000000000000000000000000000000000000000000000000000000000000602082015250565b7f455243313135353a2073657474696e6720617070726f76616c2073746174757360008201527f20666f722073656c660000000000000000000000000000000000000000000000602082015250565b7f455243313135353a206163636f756e747320616e6420696473206c656e67746860008201527f206d69736d617463680000000000000000000000000000000000000000000000602082015250565b7f455243313135353a2069647320616e6420616d6f756e7473206c656e6774682060008201527f6d69736d61746368000000000000000000000000000000000000000000000000602082015250565b7f455243313135353a206d696e7420746f20746865207a65726f2061646472657360008201527f7300000000000000000000000000000000000000000000000000000000000000602082015250565b600060443d101561338057613403565b613388612b8d565b60043d036004823e80513d602482011167ffffffffffffffff821117156133b0575050613403565b808201805167ffffffffffffffff8111156133ce5750505050613403565b80602083010160043d0385018111156133eb575050505050613403565b6133fa82602001850186612e4c565b82955050505050505b90565b61340f81612d64565b811461341a57600080fd5b50565b61342681612d76565b811461343157600080fd5b50565b61343d81612d82565b811461344857600080fd5b50565b61345481612dce565b811461345f57600080fd5b5056fea2646970667358221220024a536b397be17ecdf9da6efde76dfc6b62b2f978f64f53218512a9a76e0d8f64736f6c63430008040033",
  "linkReferences": {},
  "deployedLinkReferences": {}
}