{
  "_format": "hh-sol-artifact-1",
  "contractName": "NFTMarketplace",
  "sourceName": "contracts/nftmarketplace/NFTMarketplace.sol",
  "abi": [
    {
      "inputs": [],
      "stateMutability": "nonpayable",
      "type": "constructor"
    },
    {
      "anonymous": false,
      "inputs": [
        {
          "indexed": true,
          "internalType": "address",
          "name": "contractAddress",
          "type": "address"
        },
        {
          "indexed": true,
          "internalType": "uint256",
          "name": "tokenId",
          "type": "uint256"
        },
        {
          "indexed": true,
          "internalType": "address",
          "name": "creator",
          "type": "address"
        },
        {
          "indexed": false,
          "internalType": "string",
          "name": "metaHash",
          "type": "string"
        }
      ],
      "name": "MetaHashUpdated",
      "type": "event"
    },
    {
      "anonymous": false,
      "inputs": [
        {
          "indexed": true,
          "internalType": "address",
          "name": "previousOwner",
          "type": "address"
        },
        {
          "indexed": true,
          "internalType": "address",
          "name": "newOwner",
          "type": "address"
        }
      ],
      "name": "OwnershipTransferred",
      "type": "event"
    },
    {
      "anonymous": false,
      "inputs": [
        {
          "indexed": true,
          "internalType": "address",
          "name": "airdropper",
          "type": "address"
        },
        {
          "indexed": false,
          "internalType": "uint256",
          "name": "tokenId",
          "type": "uint256"
        },
        {
          "indexed": true,
          "internalType": "uint256",
          "name": "quantity",
          "type": "uint256"
        }
      ],
      "name": "TokenAirdropped",
      "type": "event"
    },
    {
      "anonymous": false,
      "inputs": [
        {
          "indexed": true,
          "internalType": "address",
          "name": "contractAddress",
          "type": "address"
        },
        {
          "indexed": true,
          "internalType": "address",
          "name": "creator",
          "type": "address"
        },
        {
          "indexed": false,
          "internalType": "string",
          "name": "metaHash",
          "type": "string"
        },
        {
          "indexed": false,
          "internalType": "uint256",
          "name": "tokenId",
          "type": "uint256"
        }
      ],
      "name": "TokenCreated",
      "type": "event"
    },
    {
      "anonymous": false,
      "inputs": [
        {
          "indexed": true,
          "internalType": "address",
          "name": "buyer",
          "type": "address"
        },
        {
          "indexed": false,
          "internalType": "uint256",
          "name": "tokenId",
          "type": "uint256"
        },
        {
          "indexed": true,
          "internalType": "uint256",
          "name": "quantity",
          "type": "uint256"
        }
      ],
      "name": "TokenPurchased",
      "type": "event"
    },
    {
      "inputs": [
        {
          "internalType": "address",
          "name": "to",
          "type": "address"
        },
        {
          "internalType": "uint256",
          "name": "tokenId",
          "type": "uint256"
        },
        {
          "internalType": "uint256",
          "name": "amount",
          "type": "uint256"
        }
      ],
      "name": "airdropGameItem",
      "outputs": [],
      "stateMutability": "nonpayable",
      "type": "function"
    },
    {
      "inputs": [
        {
          "internalType": "string[]",
          "name": "metaHashes",
          "type": "string[]"
        },
        {
          "internalType": "uint256[]",
          "name": "amounts",
          "type": "uint256[]"
        },
        {
          "internalType": "uint256[]",
          "name": "prices",
          "type": "uint256[]"
        }
      ],
      "name": "createBatchInitialMarketItems",
      "outputs": [],
      "stateMutability": "nonpayable",
      "type": "function"
    },
    {
      "inputs": [],
      "name": "createInitialMarketItems",
      "outputs": [],
      "stateMutability": "nonpayable",
      "type": "function"
    },
    {
      "inputs": [
        {
          "internalType": "address",
          "name": "tokenContractAddress",
          "type": "address"
        }
      ],
      "name": "faucetLOEToken",
      "outputs": [],
      "stateMutability": "payable",
      "type": "function"
    },
    {
      "inputs": [
        {
          "internalType": "uint256",
          "name": "tokenId",
          "type": "uint256"
        }
      ],
      "name": "fetchGameItemById",
      "outputs": [
        {
          "components": [
            {
              "components": [
                {
                  "internalType": "uint256",
                  "name": "tokenId",
                  "type": "uint256"
                },
                {
                  "internalType": "address payable",
                  "name": "owner",
                  "type": "address"
                },
                {
                  "internalType": "uint256",
                  "name": "totalAmount",
                  "type": "uint256"
                },
                {
                  "internalType": "uint256",
                  "name": "price",
                  "type": "uint256"
                },
                {
                  "internalType": "uint256",
                  "name": "stakingPrice",
                  "type": "uint256"
                },
                {
                  "internalType": "uint256",
                  "name": "stakingDays",
                  "type": "uint256"
                },
                {
                  "internalType": "uint256",
                  "name": "rewardQuantity",
                  "type": "uint256"
                },
                {
                  "internalType": "bool",
                  "name": "isClaimable",
                  "type": "bool"
                }
              ],
              "internalType": "struct IMarketplace.GameItem",
              "name": "gameItem",
              "type": "tuple"
            },
            {
              "internalType": "uint256",
              "name": "saleAmount",
              "type": "uint256"
            },
            {
              "internalType": "string",
              "name": "metadata",
              "type": "string"
            }
          ],
          "internalType": "struct IMarketplace.FetchingGameItem",
          "name": "",
          "type": "tuple"
        }
      ],
      "stateMutability": "view",
      "type": "function"
    },
    {
      "inputs": [],
      "name": "fetchGameItems",
      "outputs": [
        {
          "components": [
            {
              "components": [
                {
                  "internalType": "uint256",
                  "name": "tokenId",
                  "type": "uint256"
                },
                {
                  "internalType": "address payable",
                  "name": "owner",
                  "type": "address"
                },
                {
                  "internalType": "uint256",
                  "name": "totalAmount",
                  "type": "uint256"
                },
                {
                  "internalType": "uint256",
                  "name": "price",
                  "type": "uint256"
                },
                {
                  "internalType": "uint256",
                  "name": "stakingPrice",
                  "type": "uint256"
                },
                {
                  "internalType": "uint256",
                  "name": "stakingDays",
                  "type": "uint256"
                },
                {
                  "internalType": "uint256",
                  "name": "rewardQuantity",
                  "type": "uint256"
                },
                {
                  "internalType": "bool",
                  "name": "isClaimable",
                  "type": "bool"
                }
              ],
              "internalType": "struct IMarketplace.GameItem",
              "name": "gameItem",
              "type": "tuple"
            },
            {
              "internalType": "uint256",
              "name": "saleAmount",
              "type": "uint256"
            },
            {
              "internalType": "string",
              "name": "metadata",
              "type": "string"
            }
          ],
          "internalType": "struct IMarketplace.FetchingGameItem[]",
          "name": "",
          "type": "tuple[]"
        }
      ],
      "stateMutability": "view",
      "type": "function"
    },
    {
      "inputs": [
        {
          "internalType": "address",
          "name": "owner",
          "type": "address"
        }
      ],
      "name": "fetchGameItemsByOwner",
      "outputs": [
        {
          "components": [
            {
              "components": [
                {
                  "internalType": "uint256",
                  "name": "tokenId",
                  "type": "uint256"
                },
                {
                  "internalType": "address payable",
                  "name": "owner",
                  "type": "address"
                },
                {
                  "internalType": "uint256",
                  "name": "totalAmount",
                  "type": "uint256"
                },
                {
                  "internalType": "uint256",
                  "name": "price",
                  "type": "uint256"
                },
                {
                  "internalType": "uint256",
                  "name": "stakingPrice",
                  "type": "uint256"
                },
                {
                  "internalType": "uint256",
                  "name": "stakingDays",
                  "type": "uint256"
                },
                {
                  "internalType": "uint256",
                  "name": "rewardQuantity",
                  "type": "uint256"
                },
                {
                  "internalType": "bool",
                  "name": "isClaimable",
                  "type": "bool"
                }
              ],
              "internalType": "struct IMarketplace.GameItem",
              "name": "gameItem",
              "type": "tuple"
            },
            {
              "internalType": "uint256",
              "name": "saleAmount",
              "type": "uint256"
            },
            {
              "internalType": "string",
              "name": "metadata",
              "type": "string"
            }
          ],
          "internalType": "struct IMarketplace.FetchingGameItem[]",
          "name": "",
          "type": "tuple[]"
        }
      ],
      "stateMutability": "view",
      "type": "function"
    },
    {
      "inputs": [],
      "name": "name",
      "outputs": [
        {
          "internalType": "string",
          "name": "",
          "type": "string"
        }
      ],
      "stateMutability": "view",
      "type": "function"
    },
    {
      "inputs": [],
      "name": "owner",
      "outputs": [
        {
          "internalType": "address",
          "name": "",
          "type": "address"
        }
      ],
      "stateMutability": "view",
      "type": "function"
    },
    {
      "inputs": [
        {
          "internalType": "address",
          "name": "tokenContractAddress",
          "type": "address"
        },
        {
          "internalType": "uint256",
          "name": "tokenId",
          "type": "uint256"
        },
        {
          "internalType": "uint256",
          "name": "amount",
          "type": "uint256"
        },
        {
          "internalType": "string",
          "name": "paymentMethod",
          "type": "string"
        }
      ],
      "name": "purchaseGameItem",
      "outputs": [],
      "stateMutability": "payable",
      "type": "function"
    },
    {
      "inputs": [],
      "name": "renounceOwnership",
      "outputs": [],
      "stateMutability": "nonpayable",
      "type": "function"
    },
    {
      "inputs": [
        {
          "internalType": "uint256",
          "name": "tokenId",
          "type": "uint256"
        },
        {
          "internalType": "bool",
          "name": "isClaimable",
          "type": "bool"
        }
      ],
      "name": "setGameItemClaimable",
      "outputs": [],
      "stateMutability": "nonpayable",
      "type": "function"
    },
    {
      "inputs": [
        {
          "internalType": "uint256",
          "name": "tokenId",
          "type": "uint256"
        },
        {
          "internalType": "uint256",
          "name": "stakingPrice",
          "type": "uint256"
        },
        {
          "internalType": "uint256",
          "name": "stakingDays",
          "type": "uint256"
        },
        {
          "internalType": "uint256",
          "name": "rewardQuantity",
          "type": "uint256"
        }
      ],
      "name": "setGameItemStakingValues",
      "outputs": [],
      "stateMutability": "nonpayable",
      "type": "function"
    },
    {
      "inputs": [
        {
          "internalType": "address",
          "name": "contractAddress",
          "type": "address"
        }
      ],
      "name": "setLoENFTContract",
      "outputs": [],
      "stateMutability": "nonpayable",
      "type": "function"
    },
    {
      "inputs": [],
      "name": "symbol",
      "outputs": [
        {
          "internalType": "string",
          "name": "",
          "type": "string"
        }
      ],
      "stateMutability": "view",
      "type": "function"
    },
    {
      "inputs": [],
      "name": "totalSupply",
      "outputs": [
        {
          "internalType": "uint256",
          "name": "",
          "type": "uint256"
        }
      ],
      "stateMutability": "view",
      "type": "function"
    },
    {
      "inputs": [
        {
          "internalType": "address",
          "name": "newOwner",
          "type": "address"
        }
      ],
      "name": "transferOwnership",
      "outputs": [],
      "stateMutability": "nonpayable",
      "type": "function"
    }
  ],
  "bytecode": "0x60806040523480156200001157600080fd5b506200003262000026620000f960201b60201c565b6200010160201b60201c565b604051806060016040528060278152602001620047f0602791396003908051906020019062000063929190620001c5565b506040518060400160405280601181526020017f4c6f454e46544d61726b6574706c61636500000000000000000000000000000081525060049080519060200190620000b1929190620001c5565b5033600560006101000a81548173ffffffffffffffffffffffffffffffffffffffff021916908373ffffffffffffffffffffffffffffffffffffffff160217905550620002da565b600033905090565b60008060009054906101000a900473ffffffffffffffffffffffffffffffffffffffff169050816000806101000a81548173ffffffffffffffffffffffffffffffffffffffff021916908373ffffffffffffffffffffffffffffffffffffffff1602179055508173ffffffffffffffffffffffffffffffffffffffff168173ffffffffffffffffffffffffffffffffffffffff167f8be0079c531659141344cd1fd0a4f28419497f9722a3daafe3b4186f6b6457e060405160405180910390a35050565b828054620001d39062000275565b90600052602060002090601f016020900481019282620001f7576000855562000243565b82601f106200021257805160ff191683800117855562000243565b8280016001018555821562000243579182015b828111156200024257825182559160200191906001019062000225565b5b50905062000252919062000256565b5090565b5b808211156200027157600081600090555060010162000257565b5090565b600060028204905060018216806200028e57607f821691505b60208210811415620002a557620002a4620002ab565b5b50919050565b7f4e487b7100000000000000000000000000000000000000000000000000000000600052602260045260246000fd5b61450680620002ea6000396000f3fe6080604052600436106100fe5760003560e01c80636992167a1161009557806395d89b411161006457806395d89b41146102cd578063d606b72e146102f8578063d6e3f30114610321578063e0b5710d1461035e578063f2fde38b14610387576100fe565b80636992167a14610239578063715018a6146102625780638da5cb5b1461027957806393738402146102a4576100fe565b80632bf31404116100d15780632bf314041461019e578063403333b9146101ba57806343cf16bf146101e557806365c8b0d014610222576100fe565b806306fdde031461010357806315a2683c1461012e57806318160ddd1461014a5780632b5158ef14610175575b600080fd5b34801561010f57600080fd5b506101186103b0565b6040516101259190613779565b60405180910390f35b61014860048036038101906101439190612b4a565b610442565b005b34801561015657600080fd5b5061015f6105b6565b60405161016c9190613a0d565b60405180910390f35b34801561018157600080fd5b5061019c60048036038101906101979190612b73565b6105c7565b005b6101b860048036038101906101b39190612bc2565b610705565b005b3480156101c657600080fd5b506101cf610e93565b6040516101dc9190613757565b60405180910390f35b3480156101f157600080fd5b5061020c60048036038101906102079190612d48565b6111e2565b60405161021991906139eb565b60405180910390f35b34801561022e57600080fd5b50610237611480565b005b34801561024557600080fd5b50610260600480360381019061025b9190612dd6565b61152f565b005b34801561026e57600080fd5b5061027761173f565b005b34801561028557600080fd5b5061028e611753565b60405161029b9190613584565b60405180910390f35b3480156102b057600080fd5b506102cb60048036038101906102c69190612d9a565b61177c565b005b3480156102d957600080fd5b506102e261196b565b6040516102ef9190613779565b60405180910390f35b34801561030457600080fd5b5061031f600480360381019061031a9190612b4a565b6119fd565b005b34801561032d57600080fd5b5061034860048036038101906103439190612b4a565b611ab9565b6040516103559190613757565b60405180910390f35b34801561036a57600080fd5b5061038560048036038101906103809190612c3d565b611fa9565b005b34801561039357600080fd5b506103ae60048036038101906103a99190612b4a565b611fc6565b005b6060600380546103bf90613ec7565b80601f01602080910402602001604051908101604052809291908181526020018280546103eb90613ec7565b80156104385780601f1061040d57610100808354040283529160200191610438565b820191906000526020600020905b81548152906001019060200180831161041b57829003601f168201915b5050505050905090565b60008190508073ffffffffffffffffffffffffffffffffffffffff166323b872dd61046b611753565b338473ffffffffffffffffffffffffffffffffffffffff1663313ce5676040518163ffffffff1660e01b815260040160206040518083038186803b1580156104b257600080fd5b505afa1580156104c6573d6000803e3d6000fd5b505050506040513d601f19601f820116820180604052508101906104ea9190612e39565b600a6104f69190613c3c565b6103e86105039190613d5a565b6040518463ffffffff1660e01b8152600401610521939291906135f7565b602060405180830381600087803b15801561053b57600080fd5b505af115801561054f573d6000803e3d6000fd5b505050506040513d601f19601f820116820180604052508101906105739190612cde565b6105b2576040517f08c379a00000000000000000000000000000000000000000000000000000000081526004016105a99061386b565b60405180910390fd5b5050565b60006105c2600161204a565b905090565b6105cf612058565b6105d8826120d6565b610617576040517f08c379a000000000000000000000000000000000000000000000000000000000815260040161060e906138eb565b60405180910390fd5b600260009054906101000a900473ffffffffffffffffffffffffffffffffffffffff1673ffffffffffffffffffffffffffffffffffffffff1663f242432a61065d611753565b8585856040518563ffffffff1660e01b815260040161067f949392919061362e565b600060405180830381600087803b15801561069957600080fd5b505af11580156106ad573d6000803e3d6000fd5b50505050808373ffffffffffffffffffffffffffffffffffffffff167f9f5a537b42a784800a93cb0286746a19699151dbe81b7ddfdcfe343f2719e990846040516106f89190613a0d565b60405180910390a3505050565b600073ffffffffffffffffffffffffffffffffffffffff168473ffffffffffffffffffffffffffffffffffffffff161415610775576040517f08c379a000000000000000000000000000000000000000000000000000000000815260040161076c906137eb565b60405180910390fd5b61077e836120d6565b6107bd576040517f08c379a00000000000000000000000000000000000000000000000000000000081526004016107b4906138eb565b60405180910390fd5b6040516020016107cc9061355a565b60405160208183030381529060405280519060200120816040516020016107f39190613543565b60405160208183030381529060405280519060200120148061085e575060405160200161081f9061356f565b60405160208183030381529060405280519060200120816040516020016108469190613543565b60405160208183030381529060405280519060200120145b61089d576040517f08c379a00000000000000000000000000000000000000000000000000000000081526004016108949061390b565b60405180910390fd5b6040516020016108ac9061355a565b60405160208183030381529060405280519060200120816040516020016108d39190613543565b604051602081830303815290604052805190602001201415610c6857600084905060008173ffffffffffffffffffffffffffffffffffffffff166370a08231336040518263ffffffff1660e01b815260040161092f9190613584565b60206040518083038186803b15801561094757600080fd5b505afa15801561095b573d6000803e3d6000fd5b505050506040513d601f19601f8201168201806040525081019061097f9190612d71565b905060008273ffffffffffffffffffffffffffffffffffffffff1663313ce5676040518163ffffffff1660e01b815260040160206040518083038186803b1580156109c957600080fd5b505afa1580156109dd573d6000803e3d6000fd5b505050506040513d601f19601f82011682018060405250810190610a019190612e39565b60ff169050600081600a610a159190613bf1565b86600660008a815260200190815260200160002060030154610a379190613d5a565b610a419190613d5a565b905080831015610a86576040517f08c379a0000000000000000000000000000000000000000000000000000000008152600401610a7d906139cb565b60405180910390fd5b8373ffffffffffffffffffffffffffffffffffffffff166323b872dd33610aab611753565b846040518463ffffffff1660e01b8152600401610aca939291906135f7565b602060405180830381600087803b158015610ae457600080fd5b505af1158015610af8573d6000803e3d6000fd5b505050506040513d601f19601f82011682018060405250810190610b1c9190612cde565b610b5b576040517f08c379a0000000000000000000000000000000000000000000000000000000008152600401610b529061388b565b60405180910390fd5b600260009054906101000a900473ffffffffffffffffffffffffffffffffffffffff1673ffffffffffffffffffffffffffffffffffffffff1663f242432a600560009054906101000a900473ffffffffffffffffffffffffffffffffffffffff16338a8a6040518563ffffffff1660e01b8152600401610bde949392919061359f565b600060405180830381600087803b158015610bf857600080fd5b505af1158015610c0c573d6000803e3d6000fd5b50505050853373ffffffffffffffffffffffffffffffffffffffff167f3ceffd410054fdaed44f598ff5c1fb450658778e2241892da4aa646979dee61789604051610c579190613a0d565b60405180910390a350505050610e8d565b604051602001610c779061356f565b6040516020818303038152906040528051906020012081604051602001610c9e9190613543565b604051602081830303815290604052805190602001201415610e8c57600060129050600083600283610cd09190613db4565b600a610cdc9190613bf1565b6001610ce89190613d5a565b610cf29190613d5a565b905080341015610d37576040517f08c379a0000000000000000000000000000000000000000000000000000000008152600401610d2e906139cb565b60405180910390fd5b610d3f611753565b73ffffffffffffffffffffffffffffffffffffffff166108fc829081150290604051600060405180830381858888f19350505050158015610d84573d6000803e3d6000fd5b50600260009054906101000a900473ffffffffffffffffffffffffffffffffffffffff1673ffffffffffffffffffffffffffffffffffffffff1663f242432a600560009054906101000a900473ffffffffffffffffffffffffffffffffffffffff163388886040518563ffffffff1660e01b8152600401610e08949392919061359f565b600060405180830381600087803b158015610e2257600080fd5b505af1158015610e36573d6000803e3d6000fd5b50505050833373ffffffffffffffffffffffffffffffffffffffff167f3ceffd410054fdaed44f598ff5c1fb450658778e2241892da4aa646979dee61787604051610e819190613a0d565b60405180910390a350505b5b50505050565b60606000610ea1600161204a565b905060008167ffffffffffffffff811115610ee5577f4e487b7100000000000000000000000000000000000000000000000000000000600052604160045260246000fd5b604051908082528060200260200182016040528015610f1e57816020015b610f0b61287e565b815260200190600190039081610f035790505b5090506000600190505b8281116111d95760405180606001604052806006600084815260200190815260200160002060405180610100016040529081600082015481526020016001820160009054906101000a900473ffffffffffffffffffffffffffffffffffffffff1673ffffffffffffffffffffffffffffffffffffffff1673ffffffffffffffffffffffffffffffffffffffff16815260200160028201548152602001600382015481526020016004820154815260200160058201548152602001600682015481526020016007820160009054906101000a900460ff1615151515815250508152602001600260009054906101000a900473ffffffffffffffffffffffffffffffffffffffff1673ffffffffffffffffffffffffffffffffffffffff1662fdd58e611050611753565b856040518363ffffffff1660e01b815260040161106e9291906136e2565b60206040518083038186803b15801561108657600080fd5b505afa15801561109a573d6000803e3d6000fd5b505050506040513d601f19601f820116820180604052508101906110be9190612d71565b8152602001600260009054906101000a900473ffffffffffffffffffffffffffffffffffffffff1673ffffffffffffffffffffffffffffffffffffffff16630e89341c846040518263ffffffff1660e01b815260040161111e9190613a0d565b60006040518083038186803b15801561113657600080fd5b505afa15801561114a573d6000803e3d6000fd5b505050506040513d6000823e3d601f19601f820116820180604052508101906111739190612d07565b815250826001836111849190613db4565b815181106111bb577f4e487b7100000000000000000000000000000000000000000000000000000000600052603260045260246000fd5b602002602001018190525080806111d190613f2a565b915050610f28565b50809250505090565b6111ea61287e565b6111f3826120d6565b611232576040517f08c379a0000000000000000000000000000000000000000000000000000000008152600401611229906137cb565b60405180910390fd5b60405180606001604052806006600085815260200190815260200160002060405180610100016040529081600082015481526020016001820160009054906101000a900473ffffffffffffffffffffffffffffffffffffffff1673ffffffffffffffffffffffffffffffffffffffff1673ffffffffffffffffffffffffffffffffffffffff16815260200160028201548152602001600382015481526020016004820154815260200160058201548152602001600682015481526020016007820160009054906101000a900460ff1615151515815250508152602001600260009054906101000a900473ffffffffffffffffffffffffffffffffffffffff1673ffffffffffffffffffffffffffffffffffffffff1662fdd58e611353611753565b866040518363ffffffff1660e01b81526004016113719291906136e2565b60206040518083038186803b15801561138957600080fd5b505afa15801561139d573d6000803e3d6000fd5b505050506040513d601f19601f820116820180604052508101906113c19190612d71565b8152602001600260009054906101000a900473ffffffffffffffffffffffffffffffffffffffff1673ffffffffffffffffffffffffffffffffffffffff16630e89341c856040518263ffffffff1660e01b81526004016114219190613a0d565b60006040518083038186803b15801561143957600080fd5b505afa15801561144d573d6000803e3d6000fd5b505050506040513d6000823e3d601f19601f820116820180604052508101906114769190612d07565b8152509050919050565b611488612058565b6114ae336040518060600160405280602e8152602001614447602e9139606460326120f8565b6114d4336040518060600160405280602e8152602001614475602e9139606460466120f8565b6114fa336040518060600160405280602e81526020016144a3602e91396064605a6120f8565b61150b6001611388601e600261152f565b61151c6002611388603c600361152f565b61152d6003611388605a600161152f565b565b611537612058565b611540846120d6565b61157f576040517f08c379a0000000000000000000000000000000000000000000000000000000008152600401611576906138ab565b60405180910390fd5b60006006600086815260200190815260200160002060405180610100016040529081600082015481526020016001820160009054906101000a900473ffffffffffffffffffffffffffffffffffffffff1673ffffffffffffffffffffffffffffffffffffffff1673ffffffffffffffffffffffffffffffffffffffff16815260200160028201548152602001600382015481526020016004820154815260200160058201548152602001600682015481526020016007820160009054906101000a900460ff161515151581525050905083816080018181525050828160a0018181525050818160c001818152505060018160e001901515908115158152505080600660008781526020019081526020016000206000820151816000015560208201518160010160006101000a81548173ffffffffffffffffffffffffffffffffffffffff021916908373ffffffffffffffffffffffffffffffffffffffff16021790555060408201518160020155606082015181600301556080820151816004015560a0820151816005015560c0820151816006015560e08201518160070160006101000a81548160ff0219169083151502179055509050505050505050565b611747612058565b611751600061231a565b565b60008060009054906101000a900473ffffffffffffffffffffffffffffffffffffffff16905090565b611784612058565b61178d826120d6565b6117cc576040517f08c379a00000000000000000000000000000000000000000000000000000000081526004016117c3906138ab565b60405180910390fd5b60006006600084815260200190815260200160002060405180610100016040529081600082015481526020016001820160009054906101000a900473ffffffffffffffffffffffffffffffffffffffff1673ffffffffffffffffffffffffffffffffffffffff1673ffffffffffffffffffffffffffffffffffffffff16815260200160028201548152602001600382015481526020016004820154815260200160058201548152602001600682015481526020016007820160009054906101000a900460ff1615151515815250509050818160e001901515908115158152505080600660008581526020019081526020016000206000820151816000015560208201518160010160006101000a81548173ffffffffffffffffffffffffffffffffffffffff021916908373ffffffffffffffffffffffffffffffffffffffff16021790555060408201518160020155606082015181600301556080820151816004015560a0820151816005015560c0820151816006015560e08201518160070160006101000a81548160ff021916908315150217905550905050505050565b60606004805461197a90613ec7565b80601f01602080910402602001604051908101604052809291908181526020018280546119a690613ec7565b80156119f35780601f106119c8576101008083540402835291602001916119f3565b820191906000526020600020905b8154815290600101906020018083116119d657829003601f168201915b5050505050905090565b611a05612058565b600073ffffffffffffffffffffffffffffffffffffffff168173ffffffffffffffffffffffffffffffffffffffff161415611a75576040517f08c379a0000000000000000000000000000000000000000000000000000000008152600401611a6c9061396b565b60405180910390fd5b80600260006101000a81548173ffffffffffffffffffffffffffffffffffffffff021916908373ffffffffffffffffffffffffffffffffffffffff16021790555050565b6060600073ffffffffffffffffffffffffffffffffffffffff168273ffffffffffffffffffffffffffffffffffffffff161415611b2b576040517f08c379a0000000000000000000000000000000000000000000000000000000008152600401611b229061394b565b60405180910390fd5b6000611b37600161204a565b905060008167ffffffffffffffff811115611b7b577f4e487b7100000000000000000000000000000000000000000000000000000000600052604160045260246000fd5b604051908082528060200260200182016040528015611bb457816020015b611ba161287e565b815260200190600190039081611b995790505b509050600080600190505b838111611e7a576000600260009054906101000a900473ffffffffffffffffffffffffffffffffffffffff1673ffffffffffffffffffffffffffffffffffffffff1662fdd58e88846040518363ffffffff1660e01b8152600401611c249291906136e2565b60206040518083038186803b158015611c3c57600080fd5b505afa158015611c50573d6000803e3d6000fd5b505050506040513d601f19601f82011682018060405250810190611c749190612d71565b905060008114611e665760405180606001604052806006600085815260200190815260200160002060405180610100016040529081600082015481526020016001820160009054906101000a900473ffffffffffffffffffffffffffffffffffffffff1673ffffffffffffffffffffffffffffffffffffffff1673ffffffffffffffffffffffffffffffffffffffff16815260200160028201548152602001600382015481526020016004820154815260200160058201548152602001600682015481526020016007820160009054906101000a900460ff1615151515815250508152602001828152602001600260009054906101000a900473ffffffffffffffffffffffffffffffffffffffff1673ffffffffffffffffffffffffffffffffffffffff16630e89341c856040518263ffffffff1660e01b8152600401611dbb9190613a0d565b60006040518083038186803b158015611dd357600080fd5b505afa158015611de7573d6000803e3d6000fd5b505050506040513d6000823e3d601f19601f82011682018060405250810190611e109190612d07565b815250848481518110611e4c577f4e487b7100000000000000000000000000000000000000000000000000000000600052603260045260246000fd5b60200260200101819052508280611e6290613f2a565b9350505b508080611e7290613f2a565b915050611bbf565b5060008167ffffffffffffffff811115611ebd577f4e487b7100000000000000000000000000000000000000000000000000000000600052604160045260246000fd5b604051908082528060200260200182016040528015611ef657816020015b611ee361287e565b815260200190600190039081611edb5790505b50905060005b82811015611f9c57838181518110611f3d577f4e487b7100000000000000000000000000000000000000000000000000000000600052603260045260246000fd5b6020026020010151828281518110611f7e577f4e487b7100000000000000000000000000000000000000000000000000000000600052603260045260246000fd5b60200260200101819052508080611f9490613f2a565b915050611efc565b5080945050505050919050565b611fb1612058565b611fbf3386868686866123de565b5050505050565b611fce612058565b600073ffffffffffffffffffffffffffffffffffffffff168173ffffffffffffffffffffffffffffffffffffffff16141561203e576040517f08c379a00000000000000000000000000000000000000000000000000000000081526004016120359061382b565b60405180910390fd5b6120478161231a565b50565b600081600001549050919050565b6120606126e7565b73ffffffffffffffffffffffffffffffffffffffff1661207e611753565b73ffffffffffffffffffffffffffffffffffffffff16146120d4576040517f08c379a00000000000000000000000000000000000000000000000000000000081526004016120cb9061392b565b60405180910390fd5b565b6000816120e3600161204a565b101580156120f15750600082115b9050919050565b612100612058565b600073ffffffffffffffffffffffffffffffffffffffff168473ffffffffffffffffffffffffffffffffffffffff161415612170576040517f08c379a00000000000000000000000000000000000000000000000000000000081526004016121679061394b565b60405180910390fd5b600082116121b3576040517f08c379a00000000000000000000000000000000000000000000000000000000081526004016121aa9061384b565b60405180910390fd5b600081116121f6576040517f08c379a00000000000000000000000000000000000000000000000000000000081526004016121ed9061380b565b60405180910390fd5b61220060016126ef565b600061220c600161204a565b9050600260009054906101000a900473ffffffffffffffffffffffffffffffffffffffff1673ffffffffffffffffffffffffffffffffffffffff1663224cb2ea868387876040518563ffffffff1660e01b815260040161226f949392919061370b565b600060405180830381600087803b15801561228957600080fd5b505af115801561229d573d6000803e3d6000fd5b505050503373ffffffffffffffffffffffffffffffffffffffff163073ffffffffffffffffffffffffffffffffffffffff167f989c950f789dd53617d32eabbd91a779b5ac03cd8caeb147f73c8c11739d0fb1868460405161230092919061379b565b60405180910390a3612313818484612705565b5050505050565b60008060009054906101000a900473ffffffffffffffffffffffffffffffffffffffff169050816000806101000a81548173ffffffffffffffffffffffffffffffffffffffff021916908373ffffffffffffffffffffffffffffffffffffffff1602179055508173ffffffffffffffffffffffffffffffffffffffff168173ffffffffffffffffffffffffffffffffffffffff167f8be0079c531659141344cd1fd0a4f28419497f9722a3daafe3b4186f6b6457e060405160405180910390a35050565b6123e6612058565b8383905085511461242c576040517f08c379a0000000000000000000000000000000000000000000000000000000008152600401612423906138cb565b60405180910390fd5b81819050855114612472576040517f08c379a00000000000000000000000000000000000000000000000000000000081526004016124699061398b565b60405180910390fd5b6000855167ffffffffffffffff8111156124b5577f4e487b7100000000000000000000000000000000000000000000000000000000600052604160045260246000fd5b6040519080825280602002602001820160405280156124e35781602001602082028036833780820191505090505b50905060005b865181101561255e576124fc60016126ef565b612506600161204a565b82828151811061253f577f4e487b7100000000000000000000000000000000000000000000000000000000600052603260045260246000fd5b602002602001018181525050808061255690613f2a565b9150506124e9565b600260009054906101000a900473ffffffffffffffffffffffffffffffffffffffff1673ffffffffffffffffffffffffffffffffffffffff166320d80e7889848a8a8a6040518663ffffffff1660e01b81526004016125c1959493929190613686565b600060405180830381600087803b1580156125db57600080fd5b505af11580156125ef573d6000803e3d6000fd5b50505050600090505b86518110156126dd576126ca82828151811061263d577f4e487b7100000000000000000000000000000000000000000000000000000000600052603260045260246000fd5b602002602001015187878481811061267e577f4e487b7100000000000000000000000000000000000000000000000000000000600052603260045260246000fd5b905060200201358686858181106126be577f4e487b7100000000000000000000000000000000000000000000000000000000600052603260045260246000fd5b90506020020135612705565b80806126d590613f2a565b9150506125f8565b5050505050505050565b600033905090565b6001816000016000828254019250508190555050565b60008111612748576040517f08c379a000000000000000000000000000000000000000000000000000000000815260040161273f906139ab565b60405180910390fd5b604051806101000160405280848152602001600560009054906101000a900473ffffffffffffffffffffffffffffffffffffffff1673ffffffffffffffffffffffffffffffffffffffff16815260200183815260200182815260200160008152602001600081526020016000815260200160001515815250600660008581526020019081526020016000206000820151816000015560208201518160010160006101000a81548173ffffffffffffffffffffffffffffffffffffffff021916908373ffffffffffffffffffffffffffffffffffffffff16021790555060408201518160020155606082015181600301556080820151816004015560a0820151816005015560c0820151816006015560e08201518160070160006101000a81548160ff021916908315150217905550905050505050565b60405180606001604052806128916128a5565b815260200160008152602001606081525090565b60405180610100016040528060008152602001600073ffffffffffffffffffffffffffffffffffffffff16815260200160008152602001600081526020016000815260200160008152602001600081526020016000151581525090565b600061291561291084613a4d565b613a28565b9050808382526020820190508285602086028201111561293457600080fd5b60005b8581101561297e57813567ffffffffffffffff81111561295657600080fd5b8086016129638982612ab7565b85526020850194506020840193505050600181019050612937565b5050509392505050565b600061299b61299684613a79565b613a28565b9050828152602081018484840111156129b357600080fd5b6129be848285613e85565b509392505050565b60006129d96129d484613a79565b613a28565b9050828152602081018484840111156129f157600080fd5b6129fc848285613e94565b509392505050565b600081359050612a13816143ea565b92915050565b600082601f830112612a2a57600080fd5b8135612a3a848260208601612902565b91505092915050565b60008083601f840112612a5557600080fd5b8235905067ffffffffffffffff811115612a6e57600080fd5b602083019150836020820283011115612a8657600080fd5b9250929050565b600081359050612a9c81614401565b92915050565b600081519050612ab181614401565b92915050565b600082601f830112612ac857600080fd5b8135612ad8848260208601612988565b91505092915050565b600082601f830112612af257600080fd5b8151612b028482602086016129c6565b91505092915050565b600081359050612b1a81614418565b92915050565b600081519050612b2f81614418565b92915050565b600081519050612b448161442f565b92915050565b600060208284031215612b5c57600080fd5b6000612b6a84828501612a04565b91505092915050565b600080600060608486031215612b8857600080fd5b6000612b9686828701612a04565b9350506020612ba786828701612b0b565b9250506040612bb886828701612b0b565b9150509250925092565b60008060008060808587031215612bd857600080fd5b6000612be687828801612a04565b9450506020612bf787828801612b0b565b9350506040612c0887828801612b0b565b925050606085013567ffffffffffffffff811115612c2557600080fd5b612c3187828801612ab7565b91505092959194509250565b600080600080600060608688031215612c5557600080fd5b600086013567ffffffffffffffff811115612c6f57600080fd5b612c7b88828901612a19565b955050602086013567ffffffffffffffff811115612c9857600080fd5b612ca488828901612a43565b9450945050604086013567ffffffffffffffff811115612cc357600080fd5b612ccf88828901612a43565b92509250509295509295909350565b600060208284031215612cf057600080fd5b6000612cfe84828501612aa2565b91505092915050565b600060208284031215612d1957600080fd5b600082015167ffffffffffffffff811115612d3357600080fd5b612d3f84828501612ae1565b91505092915050565b600060208284031215612d5a57600080fd5b6000612d6884828501612b0b565b91505092915050565b600060208284031215612d8357600080fd5b6000612d9184828501612b20565b91505092915050565b60008060408385031215612dad57600080fd5b6000612dbb85828601612b0b565b9250506020612dcc85828601612a8d565b9150509250929050565b60008060008060808587031215612dec57600080fd5b6000612dfa87828801612b0b565b9450506020612e0b87828801612b0b565b9350506040612e1c87828801612b0b565b9250506060612e2d87828801612b0b565b91505092959194509250565b600060208284031215612e4b57600080fd5b6000612e5984828501612b35565b91505092915050565b6000612e6e838361307e565b905092915050565b6000612e8283836133dd565b905092915050565b6000612e968383613525565b60208301905092915050565b612eab81613e4f565b82525050565b612eba81613dfa565b82525050565b612ec981613de8565b82525050565b6000612eda82613ada565b612ee48185613b2d565b935083602082028501612ef685613aaa565b8060005b85811015612f325784840389528151612f138582612e62565b9450612f1e83613b06565b925060208a01995050600181019050612efa565b50829750879550505050505092915050565b6000612f4f82613ae5565b612f598185613b3e565b935083602082028501612f6b85613aba565b8060005b85811015612fa75784840389528151612f888582612e76565b9450612f9383613b13565b925060208a01995050600181019050612f6f565b50829750879550505050505092915050565b6000612fc58385613b4f565b93507f07ffffffffffffffffffffffffffffffffffffffffffffffffffffffffffffff831115612ff457600080fd5b602083029250613005838584613e85565b82840190509392505050565b600061301c82613af0565b6130268185613b4f565b935061303183613aca565b8060005b838110156130625781516130498882612e8a565b975061305483613b20565b925050600181019050613035565b5085935050505092915050565b61307881613e0c565b82525050565b600061308982613afb565b6130938185613b71565b93506130a3818560208601613e94565b6130ac81614000565b840191505092915050565b60006130c282613afb565b6130cc8185613b82565b93506130dc818560208601613e94565b6130e581614000565b840191505092915050565b60006130fb82613afb565b6131058185613b93565b9350613115818560208601613e94565b80840191505092915050565b600061312e601283613b82565b91506131398261401e565b602082019050919050565b6000613151600383613b93565b915061315c82614047565b600382019050919050565b6000613174602383613b82565b915061317f82614070565b604082019050919050565b6000613197601c83613b82565b91506131a2826140bf565b602082019050919050565b60006131ba602683613b82565b91506131c5826140e8565b604082019050919050565b60006131dd601d83613b82565b91506131e882614137565b602082019050919050565b6000613200601483613b82565b915061320b82614160565b602082019050919050565b6000613223601683613b82565b915061322e82614189565b602082019050919050565b6000613246601683613b82565b9150613251826141b2565b602082019050919050565b6000613269602783613b82565b9150613274826141db565b604082019050919050565b600061328c601283613b82565b91506132978261422a565b602082019050919050565b60006132af601783613b82565b91506132ba82614253565b602082019050919050565b60006132d2602083613b82565b91506132dd8261427c565b602082019050919050565b60006132f5600483613b93565b9150613300826142a5565b600482019050919050565b6000613318601083613b82565b9150613323826142ce565b602082019050919050565b600061333b601983613b82565b9150613346826142f7565b602082019050919050565b600061335e600083613b60565b915061336982614320565b600082019050919050565b6000613381602683613b82565b915061338c82614323565b604082019050919050565b60006133a4602383613b82565b91506133af82614372565b604082019050919050565b60006133c7601383613b82565b91506133d2826143c1565b602082019050919050565b6000610140830160008301516133f66000860182613483565b50602083015161340a610100860182613525565b506040830151848203610120860152613423828261307e565b9150508091505092915050565b6000610140830160008301516134496000860182613483565b50602083015161345d610100860182613525565b506040830151848203610120860152613476828261307e565b9150508091505092915050565b6101008201600082015161349a6000850182613525565b5060208201516134ad6020850182612eb1565b5060408201516134c06040850182613525565b5060608201516134d36060850182613525565b5060808201516134e66080850182613525565b5060a08201516134f960a0850182613525565b5060c082015161350c60c0850182613525565b5060e082015161351f60e085018261306f565b50505050565b61352e81613e38565b82525050565b61353d81613e38565b82525050565b600061354f82846130f0565b915081905092915050565b600061356582613144565b9150819050919050565b600061357a826132e8565b9150819050919050565b60006020820190506135996000830184612ec0565b92915050565b600060a0820190506135b46000830187612ea2565b6135c16020830186612ec0565b6135ce6040830185613534565b6135db6060830184613534565b81810360808301526135ec81613351565b905095945050505050565b600060608201905061360c6000830186612ec0565b6136196020830185612ec0565b6136266040830184613534565b949350505050565b600060a0820190506136436000830187612ec0565b6136506020830186612ec0565b61365d6040830185613534565b61366a6060830184613534565b818103608083015261367b81613351565b905095945050505050565b600060808201905061369b6000830188612ec0565b81810360208301526136ad8187613011565b905081810360408301526136c18186612ecf565b905081810360608301526136d6818486612fb9565b90509695505050505050565b60006040820190506136f76000830185612ec0565b6137046020830184613534565b9392505050565b60006080820190506137206000830187612ec0565b61372d6020830186613534565b818103604083015261373f81856130b7565b905061374e6060830184613534565b95945050505050565b600060208201905081810360008301526137718184612f44565b905092915050565b6000602082019050818103600083015261379381846130b7565b905092915050565b600060408201905081810360008301526137b581856130b7565b90506137c46020830184613534565b9392505050565b600060208201905081810360008301526137e481613121565b9050919050565b6000602082019050818103600083015261380481613167565b9050919050565b600060208201905081810360008301526138248161318a565b9050919050565b60006020820190508181036000830152613844816131ad565b9050919050565b60006020820190508181036000830152613864816131d0565b9050919050565b60006020820190508181036000830152613884816131f3565b9050919050565b600060208201905081810360008301526138a481613216565b9050919050565b600060208201905081810360008301526138c481613239565b9050919050565b600060208201905081810360008301526138e48161325c565b9050919050565b600060208201905081810360008301526139048161327f565b9050919050565b60006020820190508181036000830152613924816132a2565b9050919050565b60006020820190508181036000830152613944816132c5565b9050919050565b600060208201905081810360008301526139648161330b565b9050919050565b600060208201905081810360008301526139848161332e565b9050919050565b600060208201905081810360008301526139a481613374565b9050919050565b600060208201905081810360008301526139c481613397565b9050919050565b600060208201905081810360008301526139e4816133ba565b9050919050565b60006020820190508181036000830152613a058184613430565b905092915050565b6000602082019050613a226000830184613534565b92915050565b6000613a32613a43565b9050613a3e8282613ef9565b919050565b6000604051905090565b600067ffffffffffffffff821115613a6857613a67613fd1565b5b602082029050602081019050919050565b600067ffffffffffffffff821115613a9457613a93613fd1565b5b613a9d82614000565b9050602081019050919050565b6000819050602082019050919050565b6000819050602082019050919050565b6000819050602082019050919050565b600081519050919050565b600081519050919050565b600081519050919050565b600081519050919050565b6000602082019050919050565b6000602082019050919050565b6000602082019050919050565b600082825260208201905092915050565b600082825260208201905092915050565b600082825260208201905092915050565b600082825260208201905092915050565b600082825260208201905092915050565b600082825260208201905092915050565b600081905092915050565b6000808291508390505b6001851115613be857808604811115613bc457613bc3613f73565b5b6001851615613bd35780820291505b8081029050613be185614011565b9450613ba8565b94509492505050565b6000613bfc82613e38565b9150613c0783613e38565b9250613c347fffffffffffffffffffffffffffffffffffffffffffffffffffffffffffffffff8484613c87565b905092915050565b6000613c4782613e38565b9150613c5283613e42565b9250613c7f7fffffffffffffffffffffffffffffffffffffffffffffffffffffffffffffffff8484613c87565b905092915050565b600082613c975760019050613d53565b81613ca55760009050613d53565b8160018114613cbb5760028114613cc557613cf4565b6001915050613d53565b60ff841115613cd757613cd6613f73565b5b8360020a915084821115613cee57613ced613f73565b5b50613d53565b5060208310610133831016604e8410600b8410161715613d295782820a905083811115613d2457613d23613f73565b5b613d53565b613d368484846001613b9e565b92509050818404811115613d4d57613d4c613f73565b5b81810290505b9392505050565b6000613d6582613e38565b9150613d7083613e38565b9250817fffffffffffffffffffffffffffffffffffffffffffffffffffffffffffffffff0483118215151615613da957613da8613f73565b5b828202905092915050565b6000613dbf82613e38565b9150613dca83613e38565b925082821015613ddd57613ddc613f73565b5b828203905092915050565b6000613df382613e18565b9050919050565b6000613e0582613e18565b9050919050565b60008115159050919050565b600073ffffffffffffffffffffffffffffffffffffffff82169050919050565b6000819050919050565b600060ff82169050919050565b6000613e5a82613e61565b9050919050565b6000613e6c82613e73565b9050919050565b6000613e7e82613e18565b9050919050565b82818337600083830152505050565b60005b83811015613eb2578082015181840152602081019050613e97565b83811115613ec1576000848401525b50505050565b60006002820490506001821680613edf57607f821691505b60208210811415613ef357613ef2613fa2565b5b50919050565b613f0282614000565b810181811067ffffffffffffffff82111715613f2157613f20613fd1565b5b80604052505050565b6000613f3582613e38565b91507fffffffffffffffffffffffffffffffffffffffffffffffffffffffffffffffff821415613f6857613f67613f73565b5b600182019050919050565b7f4e487b7100000000000000000000000000000000000000000000000000000000600052601160045260246000fd5b7f4e487b7100000000000000000000000000000000000000000000000000000000600052602260045260246000fd5b7f4e487b7100000000000000000000000000000000000000000000000000000000600052604160045260246000fd5b6000601f19601f8301169050919050565b60008160011c9050919050565b7f4e6f6e206578697374656e74204974656d210000000000000000000000000000600082015250565b7f4c4f450000000000000000000000000000000000000000000000000000000000600082015250565b7f496e76616c6964204c4f4520746f6b656e20636f6e747261637420616464726560008201527f7373210000000000000000000000000000000000000000000000000000000000602082015250565b7f5072696365206d75737420626520626967676572207468616e20302100000000600082015250565b7f4f776e61626c653a206e6577206f776e657220697320746865207a65726f206160008201527f6464726573730000000000000000000000000000000000000000000000000000602082015250565b7f416d6f756e74206d75737420626520626967676572207468616e203021000000600082015250565b7f546f6b656e20666175636574206661696c656421000000000000000000000000600082015250565b7f5472616e7366657220746f6b656e206661696c65642100000000000000000000600082015250565b7f4e6f6e206578697374656e7420746f6b656e2069642100000000000000000000600082015250565b7f4d65746168617368657320616e6420616d6f756e7473206c656e677468206d6960008201527f736d617463682100000000000000000000000000000000000000000000000000602082015250565b7f4e6f6e206578697374656e74206974656d210000000000000000000000000000600082015250565b7f496e76616c6964207061796d656e74206d6574686f6421000000000000000000600082015250565b7f4f776e61626c653a2063616c6c6572206973206e6f7420746865206f776e6572600082015250565b7f74424e4200000000000000000000000000000000000000000000000000000000600082015250565b7f496e76616c696420616464726573732100000000000000000000000000000000600082015250565b7f496e76616c696420636f6e747261637420616464726573732100000000000000600082015250565b50565b7f4d65746168617368657320616e6420707269636573206c656e677468206d697360008201527f6d61746368210000000000000000000000000000000000000000000000000000602082015250565b7f5072696365206d757374206265206174206c656173742031204c4f4520746f6b60008201527f656e210000000000000000000000000000000000000000000000000000000000602082015250565b7f496e73756666696369656e742066756e64732100000000000000000000000000600082015250565b6143f381613de8565b81146143fe57600080fd5b50565b61440a81613e0c565b811461441557600080fd5b50565b61442181613e38565b811461442c57600080fd5b50565b61443881613e42565b811461444357600080fd5b5056fe516d5569624d63474d78706d4e756872576a53554a356a58624e327761316676414b467552446d45445366566b34516d635645577375636b52554667536d4767724879396863677a52484b71646758396941794271654444646a6a59516d55454a3450485579564632654a4463624c77346a6b325132716838545175736a775148675276764568384661a2646970667358221220faee2149f41d636f180d4d8f192e55bb5b8f67e44537b0d8026386ebc556cb9364736f6c634300080400334c6561677565206f6620456d70697265732047616d65204974656d204d61726b6574706c616365",
  "linkReferences": {},
  "deployedLinkReferences": {}
}