{
  "_format": "hh-sol-artifact-1",
  "contractName": "Stakeable",
  "sourceName": "contracts/token/Stakable.sol",
  "abi": [
    {
      "inputs": [],
      "stateMutability": "nonpayable",
      "type": "constructor"
    },
    {
      "anonymous": false,
      "inputs": [
        {
          "indexed": true,
          "internalType": "address",
          "name": "previousOwner",
          "type": "address"
        },
        {
          "indexed": true,
          "internalType": "address",
          "name": "newOwner",
          "type": "address"
        }
      ],
      "name": "OwnershipTransferred",
      "type": "event"
    },
    {
      "anonymous": false,
      "inputs": [
        {
          "indexed": true,
          "internalType": "address",
          "name": "user",
          "type": "address"
        },
        {
          "indexed": false,
          "internalType": "uint256",
          "name": "amount",
          "type": "uint256"
        },
        {
          "indexed": false,
          "internalType": "uint256",
          "name": "index",
          "type": "uint256"
        },
        {
          "indexed": false,
          "internalType": "uint256",
          "name": "timestamp",
          "type": "uint256"
        }
      ],
      "name": "Staked",
      "type": "event"
    },
    {
      "inputs": [],
      "name": "LoENFTMarketplace",
      "outputs": [
        {
          "internalType": "contract IMarketplace",
          "name": "",
          "type": "address"
        }
      ],
      "stateMutability": "view",
      "type": "function"
    },
    {
      "inputs": [
        {
          "internalType": "uint256",
          "name": "stakingAmount",
          "type": "uint256"
        },
        {
          "internalType": "uint256",
          "name": "stakingPeriod",
          "type": "uint256"
        },
        {
          "internalType": "uint256",
          "name": "rewardAmount",
          "type": "uint256"
        }
      ],
      "name": "addLOEStakingValue",
      "outputs": [],
      "stateMutability": "nonpayable",
      "type": "function"
    },
    {
      "inputs": [
        {
          "internalType": "address",
          "name": "user",
          "type": "address"
        },
        {
          "internalType": "uint256",
          "name": "index",
          "type": "uint256"
        }
      ],
      "name": "calculateStakeRewardNFT",
      "outputs": [
        {
          "components": [
            {
              "components": [
                {
                  "internalType": "uint256",
                  "name": "tokenId",
                  "type": "uint256"
                },
                {
                  "internalType": "address payable",
                  "name": "owner",
                  "type": "address"
                },
                {
                  "internalType": "uint256",
                  "name": "totalAmount",
                  "type": "uint256"
                },
                {
                  "internalType": "uint256",
                  "name": "price",
                  "type": "uint256"
                },
                {
                  "internalType": "uint256",
                  "name": "stakingPrice",
                  "type": "uint256"
                },
                {
                  "internalType": "uint256",
                  "name": "stakingDays",
                  "type": "uint256"
                },
                {
                  "internalType": "uint256",
                  "name": "rewardQuantity",
                  "type": "uint256"
                },
                {
                  "internalType": "bool",
                  "name": "isClaimable",
                  "type": "bool"
                }
              ],
              "internalType": "struct IMarketplace.GameItem",
              "name": "gameItem",
              "type": "tuple"
            },
            {
              "internalType": "uint256",
              "name": "saleAmount",
              "type": "uint256"
            },
            {
              "internalType": "string",
              "name": "metadata",
              "type": "string"
            }
          ],
          "internalType": "struct IMarketplace.FetchingGameItem[]",
          "name": "",
          "type": "tuple[]"
        }
      ],
      "stateMutability": "view",
      "type": "function"
    },
    {
      "inputs": [],
      "name": "fetchLOEStakingValues",
      "outputs": [
        {
          "components": [
            {
              "internalType": "uint256",
              "name": "amount",
              "type": "uint256"
            },
            {
              "internalType": "uint256",
              "name": "period",
              "type": "uint256"
            },
            {
              "internalType": "uint256",
              "name": "reward_amount",
              "type": "uint256"
            }
          ],
          "internalType": "struct Stakeable.LOEStakingValue[]",
          "name": "",
          "type": "tuple[]"
        }
      ],
      "stateMutability": "view",
      "type": "function"
    },
    {
      "inputs": [
        {
          "internalType": "address",
          "name": "_staker",
          "type": "address"
        }
      ],
      "name": "hasStake",
      "outputs": [
        {
          "components": [
            {
              "internalType": "uint256",
              "name": "total_amount",
              "type": "uint256"
            },
            {
              "components": [
                {
                  "internalType": "address",
                  "name": "user",
                  "type": "address"
                },
                {
                  "internalType": "uint256",
                  "name": "amount",
                  "type": "uint256"
                },
                {
                  "internalType": "uint256",
                  "name": "since",
                  "type": "uint256"
                },
                {
                  "internalType": "uint256",
                  "name": "staking_id",
                  "type": "uint256"
                },
                {
                  "internalType": "bool",
                  "name": "is_rewarding_nft",
                  "type": "bool"
                }
              ],
              "internalType": "struct Stakeable.Stake[]",
              "name": "stakes",
              "type": "tuple[]"
            }
          ],
          "internalType": "struct Stakeable.StakingSummary",
          "name": "",
          "type": "tuple"
        }
      ],
      "stateMutability": "view",
      "type": "function"
    },
    {
      "inputs": [
        {
          "internalType": "uint256",
          "name": "",
          "type": "uint256"
        }
      ],
      "name": "loeStakingValues",
      "outputs": [
        {
          "internalType": "uint256",
          "name": "amount",
          "type": "uint256"
        },
        {
          "internalType": "uint256",
          "name": "period",
          "type": "uint256"
        },
        {
          "internalType": "uint256",
          "name": "reward_amount",
          "type": "uint256"
        }
      ],
      "stateMutability": "view",
      "type": "function"
    },
    {
      "inputs": [],
      "name": "owner",
      "outputs": [
        {
          "internalType": "address",
          "name": "",
          "type": "address"
        }
      ],
      "stateMutability": "view",
      "type": "function"
    },
    {
      "inputs": [],
      "name": "renounceOwnership",
      "outputs": [],
      "stateMutability": "nonpayable",
      "type": "function"
    },
    {
      "inputs": [
        {
          "internalType": "address",
          "name": "newOwner",
          "type": "address"
        }
      ],
      "name": "transferOwnership",
      "outputs": [],
      "stateMutability": "nonpayable",
      "type": "function"
    }
  ],
  "bytecode": "0x60806040526103e860055534801561001657600080fd5b5061003361002861007360201b60201c565b61007b60201b60201c565b600180816001815401808255809150500390600052602060002090505060026001816001815401808255809150500390600052602060002090505061013f565b600033905090565b60008060009054906101000a900473ffffffffffffffffffffffffffffffffffffffff169050816000806101000a81548173ffffffffffffffffffffffffffffffffffffffff021916908373ffffffffffffffffffffffffffffffffffffffff1602179055508173ffffffffffffffffffffffffffffffffffffffff168173ffffffffffffffffffffffffffffffffffffffff167f8be0079c531659141344cd1fd0a4f28419497f9722a3daafe3b4186f6b6457e060405160405180910390a35050565b611bb18061014e6000396000f3fe608060405234801561001057600080fd5b50600436106100935760003560e01c80638da5cb5b116100665780638da5cb5b1461010c578063acb422531461012a578063df7f7b501461015c578063e73e14bf1461017a578063f2fde38b146101aa57610093565b80630299313f1461009857806320b482c5146100c85780636ac68142146100e4578063715018a614610102575b600080fd5b6100b260048036038101906100ad91906110b5565b6101c6565b6040516100bf9190611627565b60405180910390f35b6100e260048036038101906100dd9190611184565b610808565b005b6100ec61087b565b6040516100f99190611649565b60405180910390f35b61010a6108f8565b005b61011461090c565b604051610121919061160c565b60405180910390f35b610144600480360381019061013f9190611132565b610935565b604051610153939291906116e8565b60405180910390f35b61016461096f565b604051610171919061166b565b60405180910390f35b610194600480360381019061018f919061108c565b610995565b6040516101a191906116c6565b60405180910390f35b6101c460048036038101906101bf919061108c565b610b5e565b005b60606000600360008573ffffffffffffffffffffffffffffffffffffffff1673ffffffffffffffffffffffffffffffffffffffff168152602001908152602001600020549050600060018281548110610248577f4e487b7100000000000000000000000000000000000000000000000000000000600052603260045260246000fd5b90600052602060002090600202016001018481548110610291577f4e487b7100000000000000000000000000000000000000000000000000000000600052603260045260246000fd5b90600052602060002090600502016040518060a00160405290816000820160009054906101000a900473ffffffffffffffffffffffffffffffffffffffff1673ffffffffffffffffffffffffffffffffffffffff1673ffffffffffffffffffffffffffffffffffffffff1681526020016001820154815260200160028201548152602001600382015481526020016004820160009054906101000a900460ff161515151581525050905060004290506000600460009054906101000a900473ffffffffffffffffffffffffffffffffffffffff1673ffffffffffffffffffffffffffffffffffffffff166318160ddd6040518163ffffffff1660e01b815260040160206040518083038186803b1580156103aa57600080fd5b505afa1580156103be573d6000803e3d6000fd5b505050506040513d601f19601f820116820180604052508101906103e2919061115b565b905060008167ffffffffffffffff811115610426577f4e487b7100000000000000000000000000000000000000000000000000000000600052604160045260246000fd5b60405190808252806020026020018201604052801561045f57816020015b61044c610d2c565b8152602001906001900390816104445790505b5090506000600460009054906101000a900473ffffffffffffffffffffffffffffffffffffffff1673ffffffffffffffffffffffffffffffffffffffff1663403333b96040518163ffffffff1660e01b815260040160006040518083038186803b1580156104cc57600080fd5b505afa1580156104e0573d6000803e3d6000fd5b505050506040513d6000823e3d601f19601f8201168201806040525081019061050991906110f1565b90506000805b848110156106d457828181518110610550577f4e487b7100000000000000000000000000000000000000000000000000000000600052603260045260246000fd5b60200260200101516000015160e0015180156105b757508281815181106105a0577f4e487b7100000000000000000000000000000000000000000000000000000000600052603260045260246000fd5b602002602001015160000151608001518760200151145b801561062857508281815181106105f7577f4e487b7100000000000000000000000000000000000000000000000000000000600052603260045260246000fd5b60200260200101516000015160a001516201518088604001518861061b91906118aa565b6106259190611879565b10155b156106c157828181518110610666577f4e487b7100000000000000000000000000000000000000000000000000000000600052603260045260246000fd5b60200260200101518483815181106106a7577f4e487b7100000000000000000000000000000000000000000000000000000000600052603260045260246000fd5b602002602001018190525081806106bd906119c0565b9250505b80806106cc906119c0565b91505061050f565b5060008167ffffffffffffffff811115610717577f4e487b7100000000000000000000000000000000000000000000000000000000600052604160045260246000fd5b60405190808252806020026020018201604052801561075057816020015b61073d610d2c565b8152602001906001900390816107355790505b50905060005b828110156107f657848181518110610797577f4e487b7100000000000000000000000000000000000000000000000000000000600052603260045260246000fd5b60200260200101518282815181106107d8577f4e487b7100000000000000000000000000000000000000000000000000000000600052603260045260246000fd5b602002602001018190525080806107ee906119c0565b915050610756565b50809850505050505050505092915050565b610810610be2565b600260405180606001604052808581526020018481526020018381525090806001815401808255809150506001900390600052602060002090600302016000909190919091506000820151816000015560208201518160010155604082015181600201555050505050565b60606002805480602002602001604051908101604052809291908181526020016000905b828210156108ef578382906000526020600020906003020160405180606001604052908160008201548152602001600182015481526020016002820154815250508152602001906001019061089f565b50505050905090565b610900610be2565b61090a6000610c60565b565b60008060009054906101000a900473ffffffffffffffffffffffffffffffffffffffff16905090565b6002818154811061094557600080fd5b90600052602060002090600302016000915090508060000154908060010154908060020154905083565b600460009054906101000a900473ffffffffffffffffffffffffffffffffffffffff1681565b61099d610d53565b6000806040518060400160405280600081526020016001600360008873ffffffffffffffffffffffffffffffffffffffff1673ffffffffffffffffffffffffffffffffffffffff1681526020019081526020016000205481548110610a2b577f4e487b7100000000000000000000000000000000000000000000000000000000600052603260045260246000fd5b9060005260206000209060020201600101805480602002602001604051908101604052809291908181526020016000905b82821015610b1d57838290600052602060002090600502016040518060a00160405290816000820160009054906101000a900473ffffffffffffffffffffffffffffffffffffffff1673ffffffffffffffffffffffffffffffffffffffff1673ffffffffffffffffffffffffffffffffffffffff1681526020016001820154815260200160028201548152602001600382015481526020016004820160009054906101000a900460ff16151515158152505081526020019060010190610a5c565b50505050815250905060005b816020015151811015610b49578080610b41906119c0565b915050610b29565b50818160000181815250508092505050919050565b610b66610be2565b600073ffffffffffffffffffffffffffffffffffffffff168173ffffffffffffffffffffffffffffffffffffffff161415610bd6576040517f08c379a0000000000000000000000000000000000000000000000000000000008152600401610bcd90611686565b60405180910390fd5b610bdf81610c60565b50565b610bea610d24565b73ffffffffffffffffffffffffffffffffffffffff16610c0861090c565b73ffffffffffffffffffffffffffffffffffffffff1614610c5e576040517f08c379a0000000000000000000000000000000000000000000000000000000008152600401610c55906116a6565b60405180910390fd5b565b60008060009054906101000a900473ffffffffffffffffffffffffffffffffffffffff169050816000806101000a81548173ffffffffffffffffffffffffffffffffffffffff021916908373ffffffffffffffffffffffffffffffffffffffff1602179055508173ffffffffffffffffffffffffffffffffffffffff168173ffffffffffffffffffffffffffffffffffffffff167f8be0079c531659141344cd1fd0a4f28419497f9722a3daafe3b4186f6b6457e060405160405180910390a35050565b600033905090565b6040518060600160405280610d3f610d6d565b815260200160008152602001606081525090565b604051806040016040528060008152602001606081525090565b60405180610100016040528060008152602001600073ffffffffffffffffffffffffffffffffffffffff16815260200160008152602001600081526020016000815260200160008152602001600081526020016000151581525090565b6000610ddd610dd884611744565b61171f565b90508083825260208201905082856020860282011115610dfc57600080fd5b60005b85811015610e4657815167ffffffffffffffff811115610e1e57600080fd5b808601610e2b8982610f21565b85526020850194506020840193505050600181019050610dff565b5050509392505050565b6000610e63610e5e84611770565b61171f565b905082815260208101848484011115610e7b57600080fd5b610e8684828561195c565b509392505050565b600081359050610e9d81611b1f565b92915050565b600081519050610eb281611b36565b92915050565b600082601f830112610ec957600080fd5b8151610ed9848260208601610dca565b91505092915050565b600081519050610ef181611b4d565b92915050565b600082601f830112610f0857600080fd5b8151610f18848260208601610e50565b91505092915050565b60006101408284031215610f3457600080fd5b610f3e606061171f565b90506000610f4e84828501610f9c565b600083015250610100610f6384828501611077565b60208301525061012082015167ffffffffffffffff811115610f8457600080fd5b610f9084828501610ef7565b60408301525092915050565b60006101008284031215610faf57600080fd5b610fba61010061171f565b90506000610fca84828501611077565b6000830152506020610fde84828501610ea3565b6020830152506040610ff284828501611077565b604083015250606061100684828501611077565b606083015250608061101a84828501611077565b60808301525060a061102e84828501611077565b60a08301525060c061104284828501611077565b60c08301525060e061105684828501610ee2565b60e08301525092915050565b60008135905061107181611b64565b92915050565b60008151905061108681611b64565b92915050565b60006020828403121561109e57600080fd5b60006110ac84828501610e8e565b91505092915050565b600080604083850312156110c857600080fd5b60006110d685828601610e8e565b92505060206110e785828601611062565b9150509250929050565b60006020828403121561110357600080fd5b600082015167ffffffffffffffff81111561111d57600080fd5b61112984828501610eb8565b91505092915050565b60006020828403121561114457600080fd5b600061115284828501611062565b91505092915050565b60006020828403121561116d57600080fd5b600061117b84828501611077565b91505092915050565b60008060006060848603121561119957600080fd5b60006111a786828701611062565b93505060206111b886828701611062565b92505060406111c986828701611062565b9150509250925092565b60006111df8383611412565b905092915050565b60006111f38383611507565b60608301905092915050565b600061120b8383611549565b60a08301905092915050565b611220816118f0565b82525050565b61122f816118de565b82525050565b61123e816118de565b82525050565b600061124f826117d1565b6112598185611824565b93508360208202850161126b856117a1565b8060005b858110156112a7578484038952815161128885826111d3565b9450611293836117fd565b925060208a0199505060018101905061126f565b50829750879550505050505092915050565b60006112c4826117dc565b6112ce8185611835565b93506112d9836117b1565b8060005b8381101561130a5781516112f188826111e7565b97506112fc8361180a565b9250506001810190506112dd565b5085935050505092915050565b6000611322826117e7565b61132c8185611846565b9350611337836117c1565b8060005b8381101561136857815161134f88826111ff565b975061135a83611817565b92505060018101905061133b565b5085935050505092915050565b61137e81611902565b82525050565b61138d81611938565b82525050565b600061139e826117f2565b6113a88185611857565b93506113b881856020860161195c565b6113c181611a96565b840191505092915050565b60006113d9602683611868565b91506113e482611aa7565b604082019050919050565b60006113fc602083611868565b915061140782611af6565b602082019050919050565b60006101408301600083015161142b6000860182611465565b50602083015161143f6101008601826115ee565b5060408301518482036101208601526114588282611393565b9150508091505092915050565b6101008201600082015161147c60008501826115ee565b50602082015161148f6020850182611217565b5060408201516114a260408501826115ee565b5060608201516114b560608501826115ee565b5060808201516114c860808501826115ee565b5060a08201516114db60a08501826115ee565b5060c08201516114ee60c08501826115ee565b5060e082015161150160e0850182611375565b50505050565b60608201600082015161151d60008501826115ee565b50602082015161153060208501826115ee565b50604082015161154360408501826115ee565b50505050565b60a08201600082015161155f6000850182611226565b50602082015161157260208501826115ee565b50604082015161158560408501826115ee565b50606082015161159860608501826115ee565b5060808201516115ab6080850182611375565b50505050565b60006040830160008301516115c960008601826115ee565b50602083015184820360208601526115e18282611317565b9150508091505092915050565b6115f78161192e565b82525050565b6116068161192e565b82525050565b60006020820190506116216000830184611235565b92915050565b600060208201905081810360008301526116418184611244565b905092915050565b6000602082019050818103600083015261166381846112b9565b905092915050565b60006020820190506116806000830184611384565b92915050565b6000602082019050818103600083015261169f816113cc565b9050919050565b600060208201905081810360008301526116bf816113ef565b9050919050565b600060208201905081810360008301526116e081846115b1565b905092915050565b60006060820190506116fd60008301866115fd565b61170a60208301856115fd565b61171760408301846115fd565b949350505050565b600061172961173a565b9050611735828261198f565b919050565b6000604051905090565b600067ffffffffffffffff82111561175f5761175e611a67565b5b602082029050602081019050919050565b600067ffffffffffffffff82111561178b5761178a611a67565b5b61179482611a96565b9050602081019050919050565b6000819050602082019050919050565b6000819050602082019050919050565b6000819050602082019050919050565b600081519050919050565b600081519050919050565b600081519050919050565b600081519050919050565b6000602082019050919050565b6000602082019050919050565b6000602082019050919050565b600082825260208201905092915050565b600082825260208201905092915050565b600082825260208201905092915050565b600082825260208201905092915050565b600082825260208201905092915050565b60006118848261192e565b915061188f8361192e565b92508261189f5761189e611a38565b5b828204905092915050565b60006118b58261192e565b91506118c08361192e565b9250828210156118d3576118d2611a09565b5b828203905092915050565b60006118e98261190e565b9050919050565b60006118fb8261190e565b9050919050565b60008115159050919050565b600073ffffffffffffffffffffffffffffffffffffffff82169050919050565b6000819050919050565b60006119438261194a565b9050919050565b60006119558261190e565b9050919050565b60005b8381101561197a57808201518184015260208101905061195f565b83811115611989576000848401525b50505050565b61199882611a96565b810181811067ffffffffffffffff821117156119b7576119b6611a67565b5b80604052505050565b60006119cb8261192e565b91507fffffffffffffffffffffffffffffffffffffffffffffffffffffffffffffffff8214156119fe576119fd611a09565b5b600182019050919050565b7f4e487b7100000000000000000000000000000000000000000000000000000000600052601160045260246000fd5b7f4e487b7100000000000000000000000000000000000000000000000000000000600052601260045260246000fd5b7f4e487b7100000000000000000000000000000000000000000000000000000000600052604160045260246000fd5b6000601f19601f8301169050919050565b7f4f776e61626c653a206e6577206f776e657220697320746865207a65726f206160008201527f6464726573730000000000000000000000000000000000000000000000000000602082015250565b7f4f776e61626c653a2063616c6c6572206973206e6f7420746865206f776e6572600082015250565b611b28816118de565b8114611b3357600080fd5b50565b611b3f816118f0565b8114611b4a57600080fd5b50565b611b5681611902565b8114611b6157600080fd5b50565b611b6d8161192e565b8114611b7857600080fd5b5056fea2646970667358221220bf7ba3621f4afab6522b95cb5db2116ed0e290f23e9325f38c37743a238ea85a64736f6c63430008040033",
  "linkReferences": {},
  "deployedLinkReferences": {}
}